:100000000C9404020C9421020C9421020C947C2088
:100010000C9421020C9421020C9421020C941C22B9
:100020000C9421020C9421020C9421020C94310FA7
:100030000C9421020C9421020C9421020C942102B4
:100040000C9421020C9421020C947E0D0C9421023C
:100050000C944D1D0C94BB070C94EC070C942102DE
:100060000C9421020C9421020C9421020C94210284
:100070000C94F1080C9426090C9457090C94210255
:100080000C9421020C9421020C9421020C94210264
:100090000C9421020C9421020C9421020C94210254
:1000A0000C9421020C9421020C9421020C94210244
:1000B0000C9421020C9421020C94B6080C94210299
:1000C0000C9421020C9421020C94210291039103BF
:1000D000930395039E039E0391039E039E039E0339
:1000E0009E039E039E039E039E039E03A0039E0306
:1000F0009E0397039E039E0399039E039E039E0304
:100100009E039E039E039E039E039E039E039E03E7
:100110009E039E039E039E039E039E039E039E03D7
:100120009E039E039E039E039E039E03A0039E03C5
:100130009E039E039E039E039E039E039E039E03B7
:100140009E039E039E039E039E039B036417BB1C9A
:10015000BB1C64191E1851188418BB1CC319BB1C86
:10016000BB1CBB1CBB1CBB1CBB1CCD17F417A317B3
:10017000BB1CBB1CBB1CBB1CB11CE3182919BB1C42
:10018000BB1CBB1CBB1CBB1CBB1CED190D1BBB183B
:10019000BB1CD61B101C461C7C1C8E19BB1CBB1C1C
:1001A000BB1CBB1CBB1CBB1CBB1CBB1CBB1CBB1C97
:1001B000BB1CBB1CBB1CBB1CBB1CBB1CBB1CBB1C87
:1001C000BB1CBB1CBB1CBB1CBB1CBB1CBB1CBB1C77
:1001D000BB1CBB1CBB1CBB1CBB1CBB1CBB1CBB1C67
:1001E000BB1CBB1CBB1CBB1CBB1CBB1CBB1CBB1C57
:1001F000BB1CBB1CBB1CBB1CBB1CBB1CBB1CBB1C47
:10020000BB1CBB1CBB1CBB1CBB1CBB1C3B1A6F1A06
:10021000A41AD81A401B721BA41BEA1F6C206C2066
:100220006C206C20351F6C206C206C206C206C20A6
:100230006C206C206C206C206C206C206C206C205E
:100240006C206C206C206C206C20851F6C206C2036
:100250006C206C206C206C20F91E6C200D1FAF1FD1
:100260006C20E71EDE1F6C206C206C206C206C2044
:100270006C206C206C205D1F711F6C206C20211F76
:100280006C20491F4920552061206C206C206C2077
:100290006C206C206C200F201D206C206C206C20AA
:1002A0006C206C206C206C206C206C206C206C20EE
:1002B0006C206C206C202C203A200F2419243A2426
:1002C0002E24372434244D244D244D244D244D24F4
:1002D0004D244D244D2431244D244D244D242B24D4
:1002E0004D24232400407A10F35A00A0724E1809BE
:1002F0000010A5D4E80000E87648170000E40B548D
:10030000020000CA9A3B000000E1F505000080965B
:100310009800000040420F000000A086010000008D
:10032000102700000000E803000000006400000047
:1003300000000A00000000000100000000002C7610
:10034000D888DC674F0823DFC1DFAE59E1B1B7962B
:10035000E5E3E453C63AE651997696E8E6C2842688
:10036000EB898C9B62ED407C6FFCEFBC9C9F40F264
:10037000BAA56FA5F490055A2AF75C936B6CF967E0
:100380006DC11BFCE0E40D47FEF520E6B500D0EDA5
:10039000902E0300943577050080841E080000200D
:1003A0004E0A000000C80C333333330F986E1283AB
:1003B0001141EF8D2114893BE65516CFFEE6DB187F
:1003C000D1844B381BF77C1D901DA4BBE424203244
:1003D00084725E228100C9F124ECA1E53D275343DC
:1003E0004F5245424F4152445F562E312E3200EE5D
:1003F000067C3E96BAFA26FEBEE810B400F4DA0196
:10040000F05A52F6D8C8F80011241FBECFEFD8E03A
:10041000DEBFCDBF11E0A0E0B1E0E0E7F0E502C053
:1004200005900D92AE30B107D9F725E0AEE0B1E00E
:1004300001C01D92AA31B207E1F70E9485230C94F6
:1004400036280C94000084E082B98FE381B90895C6
:1004500020E011C080FF04C092B1916092B903C046
:1004600092B19E7F92B992B1926092B992B19D7F02
:1004700092B985952F5F283068F3089582B188601E
:1004800082B982B1877F82B90895CF93DF93C0E0AC
:1004900004C08FEF0E942802CF5F2C2F30E08091A4
:1004A000CF04082E000C990B2817390794F30E94EB
:1004B0003E02A8952FEF83EC99E0215080409040B8
:1004C000E1F700C00000D0E81DC08D2F0E94280277
:1004D000CF5F01C0C0E02C2F30E08091CF04082E08
:1004E000000C990B2817390784F30E943E02A89547
:1004F0002FEF83EC99E0215080409040E1F700C05D
:100500000000D695D111E6CFDF91CF91089582B149
:10051000846082B982B1877F82B982B1826082B9F8
:1005200082B18D7F82B982B18B7F82B982B18260C4
:1005300082B982B18D7F82B982B1846082B982B181
:10054000826082B982B18D7F82B982B1886082B9BE
:1005500082B1826082B982B18D7F82B982B1877F98
:1005600082B982B1826082B982B18D7F82B90895E9
:1005700082B1846082B982B1877F82B982B18260A0
:1005800082B982B18D7F82B982B18B7F82B982B10B
:10059000826082B982B18D7F82B982B1846082B972
:1005A00082B1826082B982B18D7F82B982B182606C
:1005B00082B982B18D7F82B982B1826082B982B103
:1005C0008D7F82B982B18B7F82B90895CF93DF93FB
:1005D000D82FC62F0E94870280E1D89FA001112446
:1005E0004F3F510519F110F14FEF50E01FC0242F7C
:1005F00080E016C0873019F492B1986092B920FF5C
:1006000004C092B1916092B903C092B19E7F92B939
:1006100092B1926092B992B19D7F92B926958F5F07
:10062000883040F382B1877F82B9C150C111DFCFDA
:100630000E94B802DF91CF910895A8951092D2043C
:100640008EE08093D3041092D1041092D00485E000
:10065000809302018DB384608DBB0895E9E6F0E0DC
:1006600080818061808384B18B7F84B91092800007
:1006700082E0809381000E941D030895FC01909107
:10068000D204992331F08091D0049091D1049183C8
:1006900080838091D204089591E099BB2EB180E4CB
:1006A00082278EB920E030E83093A5002093A40083
:1006B00082E08093A1009093720008952091000140
:1006C000309101012827309301012093000128E097
:1006D00030E019C0809100019091010180FF0BC0B2
:1006E0009695879541E0842740EA942790930101ED
:1006F0008093000106C096958795909301018093A1
:100700000001215031092115310521F7089590E0AC
:10071000FC017197E034F10588F4EA59FF4F0C941D
:100720004D2581E0089583E0089583E0089583E0F6
:10073000089588E008958091CF04089580E0089599
:1007400082E00895FC01A081B1814E9121E030E06A
:10075000C901028002C0880F991F0A94E2F7842B16
:100760008C938FEB93E00197F1F700C00000A0811C
:10077000B1819E91A901028002C0440F551F0A94C5
:10078000E2F7842F809589238C9395ED9A95F1F764
:100790000000A081B18112978C91028002C0220FCB
:1007A000331F0A94E2F78223EFE1F3E03197F1F788
:1007B00000C000000895FC01A081B1818E9121E06C
:1007C00030E0028002C0220F331F0A94E2F7282B88
:1007D0002C936623A9F088E28A95F1F7A081B18174
:1007E0002E9181E090E0028002C0880F991F0A9448
:1007F000E2F7809582238C9388E78A95F1F7089534
:1008000080EA8A95F1F7A081B1812E9181E090E094
:10081000028002C0880F991F0A94E2F78095822314
:100820008C930895FC01A081B1814E9181E090E00C
:100830009C01028002C0220F331F0A94E2F7242B8E
:100840002C932AE02A95F1F700C0A081B1812E9166
:10085000028002C0880F991F0A94E2F780958223D4
:100860008C9385E18A95F1F70000A081B181129700
:100870008C9190E0028002C0959587950A94E2F7EA
:1008800080FD02C080E001C081E090E89A95F1F718
:1008900008950F931F93CF93DF938C01D62FC1E060
:1008A00006C06C2F6D23C8010E94DB03CC0FC11161
:1008B000F8CFDF91CF911F910F9108950F931F9360
:1008C000CF93DF938C01C1E0D0E006C0C8010E9445
:1008D00012048111DC2BCC0FC111F8CF8D2FDF91C9
:1008E000CF911F910F910895AC0180E020E00DC0E1
:1008F000FA01E20FF11D9081892798E03CE8869586
:1009000008F483279A95D9F72F5F261788F308955F
:10091000EF92FF920F931F93CF937C0163E30E94AA
:100920004904C0E00AC00C2F10E0C7010E945E0419
:10093000F701E00FF11F8383CF5FC830A0F367E0BA
:10094000C70103960E947404F7019285891302C0BF
:1009500081E001C080E0CF911F910F91FF90EF9057
:1009600008951F93CF93DF93EC01798368834A83C3
:10097000FB01308181E090E0FC0102C0EE0FFF1F1F
:100980004A95E2F72E2F20952323FB012083E8814F
:10099000F98122910A8002C0880F991F0A94E2F718
:1009A000809582238083CE010E94A203182F81119B
:1009B00011C0CE010E948804882371F08B818031A0
:1009C00039F0883259F481E08C8B8FE78F8707C02C
:1009D0001C8A05C011E003C011E001C011E0812FA5
:1009E000DF91CF911F910895EF92FF920F931F9384
:1009F000CF937C010E94A2036CECC7010E944904C2
:100A00006EEBC7010E944904C0E00AC00C2F10E041
:100A1000C7010E945E04F701E00FF11F8387CF5FDB
:100A2000C930A0F368E0C7010B960E947404F70177
:100A30009389891302C081E001C080E0CF911F91AA
:100A40000F91FF90EF900895CF93DF93EC010E94F8
:100A5000A2036CECCE010E94490464E4CE010E9422
:100A600049048F858F3371F08F35B1F08F31F1F4F8
:100A70002FE78BE492E0215080409040E1F700C0E6
:100A800000001DC02FEF86E994E021508040904087
:100A9000E1F700C0000013C02FEB87E299E021507E
:100AA00080409040E1F700C0000009C02FE78FE4CC
:100AB00092E1215080409040E1F700C00000CE015B
:100AC0000E94F404DF91CF910895FC012489213024
:100AD00009F467870895CF93DF93EC010E94A20386
:100AE0006CECCE010E9449046EE4CE010E944904E0
:100AF0006D85CE010E9449046E85CE010E94490495
:100B00008C89813021F46F85CE010E944904DF91E8
:100B1000CF910895FC01648570E0762F6627838568
:100B2000682B772314F021E001C02FEF8489811115
:100B30000DC0072E000C880B990B0E94542420E056
:100B400030E040E05FE30E948F24089587858F3373
:100B500059F020F48F3109F456C079C08F3531F146
:100B60008F3709F443C073C0AB01772324F44427C3
:100B70005527461B570BCA0199230CF40396AC0169
:100B800055954795559547952403B001259F700DC0
:100B90001124072E000C880B990B0E94542420E08E
:100BA00030E040E85EE30E948F240895AB01772394
:100BB00024F444275527461B570BCA0199230CF4EC
:100BC0000196AC01559547952403B001259F700D02
:100BD0001124072E000C880B990B0E94542420E04E
:100BE00030E040E05EE30E948F240895072E000C61
:100BF000880B990B0E94542420E030E040E85DE32C
:100C00000E948F240895AB01772324F444275527AD
:100C1000461B570BCA0199230CF40796AC01559556
:100C2000479555954795559547952403B001259FC0
:100C3000700D1124072E000C880B990B0E94542470
:100C400020E030E040E05FE30E948F24089560E000
:100C500070E0CB01089587B1836087B981B1806866
:100C600081B9089588B18E7F88B982B18F7782B9B2
:100C700082B1806882B98AE08A95F1F700C0089550
:100C800097B1926097B920E018C098B19D7F98B94C
:100C900080FF03C098B1926098B998B19E7F98B9CF
:100CA00095E09A95F1F7000098B1916098B995E0B8
:100CB0009A95F1F7000086952F5F283030F308955C
:100CC000CF93DF93D82FC62F0E9432068D2F0E941C
:100CD00040068C2F0E94400682B18F7782B988B17E
:100CE0008E7F88B9DF91CF91089587B18D7F87B9C5
:100CF00080E020E019C098B1916098B995E09A958C
:100D0000F1F7000098B19E7F98B995E09A95F1F7B8
:100D10000000319902C090E001C091E097959927B9
:100D200097958695892B2F5F283028F30895CF93C8
:100D3000C82F0E9432068C2F0E9440060E94750622
:100D400092B19F7792B998B19E7F98B9CF9108954B
:100D5000CF93DF93EC012F30A1F5643129F481E8C2
:100D60000E94970688839EC0653129F483E80E941B
:100D70009706898397C0663139F485E80E94970603
:100D80009CE09F838A838EC06B3129F48BE80E949C
:100D900097068B8387C0673129F487E80E949706FE
:100DA0008C8380C0683129F489E80E9497068D837E
:100DB00079C0693109F076C08DE80E9497068E836C
:100DC00071C0203109F06EC0643129F4642F80E8CD
:100DD0000E94600667C0653129F4642F82E80E9492
:100DE000600660C06631E1F58F818A30C1F48DEC18
:100DF000489F812D112486958695869590E1899F3F
:100E0000B00111246071880F982F990F990F890FE5
:100E1000481B642B606884E80E94600643C08B30E6
:100E2000C1F48DEC489F812D112486958695869579
:100E300090E1899FB00111246071880F982F990F5C
:100E4000990F890F481B642B606A84E80E94600632
:100E500029C08C3039F5642F84E80E94600622C0D6
:100E60006B3129F4642F8AE80E9460061BC0673149
:100E700029F4642F86E80E94600614C0683129F4C2
:100E8000642F88E80E9460060DC0693129F4642F40
:100E90008CE80E94600606C06A3121F4642F8EE857
:100EA0000E946006DF91CF9108952FE040E00E94FC
:100EB000A8060895CF93DF93EC0164E10E945507E3
:100EC00065E1CE010E94550766E1CE010E945507FB
:100ED0006BE1CE010E94550767E1CE010E945507E4
:100EE00068E1CE010E94550769E1CE010E945507D5
:100EF000DF91CF91089520E10E94A8060895CF9335
:100F0000DF93EC0140E06AE10E947B074A8166E1E1
:100F1000CE010E947B07498165E1CE010E947B07DB
:100F2000488164E1CE010E947B0741E06AE1CE0185
:100F30000E947B07DF91CF910895CF93DF93EC015F
:100F400040E06AE10E947B074E8169E1CE010E9488
:100F50007B074D8168E1CE010E947B074C8167E1F0
:100F6000CE010E947B0741E06AE1CE010E947B072F
:100F7000DF91CF9108951F920F920FB60F92112417
:100F80008F939F93EF93FF93909197028091960296
:100F9000981789F08091960290E00196FC01FF2756
:100FA0008093960282B1806182B9E85EFC4F8081B5
:100FB0008093C60008C0E1ECF0E080818F7D8083E3
:100FC000808180648083FF91EF919F918F910F903A
:100FD0000FBE0F901F9018951F920F920FB60F9291
:100FE00011248F9382B18F7E82B98F910F900FBEA3
:100FF0000F901F9018959C01F89491E009C01092F1
:10100000970210929602109295021092940290E02C
:101010009111F5CF7894332324F482E08093C000BB
:101020003F773093C5002093C40088E98093C100C6
:1010300086E08093C2000895F89481E00BC020916F
:1010400095029091940280E0291304C0789480E086
:1010500091E008958111F3CF78948091940290E00B
:1010600001968F77992780939402FC01E856FD4FF3
:1010700020818091930290E0982F8827820F911D04
:1010800008956091970270E06F5F7F4FAB01552725
:101090002091960230E042175307D1F3FA01E85E3F
:1010A000FC4F808360939702E1ECF0E080818062E6
:1010B00080830895FF920F931F93CF93DF93CDB753
:1010C000DEB78FEF9FEF9093010180930001F894BA
:1010D0008CE190E00E94E927888778940885802F2A
:1010E0000E945E031985812F0E945E03802F0E945B
:1010F0004108812F0E9441081A851123E9F0812FB0
:101100000E945E03812F0E94410800E012C0EBE0C4
:10111000F0E0EC0FFD1FE00FF11D07FDFA95F080E8
:101120008F2D0E9441080F5F8F2D0E945E0311508A
:101130001A871A851111EBCF809100010E94410896
:10114000809101010E944108DF91CF911F910F9181
:10115000FF900895F89481E005C0809194028093F7
:10116000950280E08111F9CF789408951F920F9233
:101170000FB60F9211242F933F934F935F936F936A
:101180007F938F939F93AF93BF93EF93FF938EB112
:101190008F7B8EB90E94AA0810921A048FEF9FEFDE
:1011A0009093010180930001E5EDF4E080831092BB
:1011B0001905109218058183128213821092A100E2
:1011C000FF91EF91BF91AF919F918F917F916F911F
:1011D0005F914F913F912F910F900FBE0F901F90F5
:1011E00018951F920F920FB60F9211242F933F93D1
:1011F0004F935F938F939F93EF93FF932091C8003A
:101200003091CE0028718091100190E001968F7787
:10121000992740910F0150E08417950739F080938A
:101220001001FC01ED5EFE4F308301C022E02093EF
:101230000E01FF91EF919F918F915F914F913F919F
:101240002F910F900FBE0F901F9018951F920F9225
:101250000FB60F9211248F939F93EF93FF9390916A
:10126000120180911101981789F08091110190E08D
:101270000196FC01FF278093110182B1806282B93F
:10128000ED56FE4F80818093CE0008C0E9ECF0E07F
:1012900080818F7D8083808180648083FF91EF9146
:1012A0009F918F910F900FBE0F901F9018951F92D6
:1012B0000F920FB60F9211248F9382B18F7D82B956
:1012C0008F910F900FBE0F901F90189588E080931C
:1012D000680080EF809373000895CF9389E090E0D9
:1012E0000E94E927811115C01AC0EC2F0C2E000CAA
:1012F000FF0BE158FB4F9081E92FEF77F0E0E151D0
:10130000FC4F849199230CF481600E942802CF5FE6
:1013100001C0C0E08091CF04C8173CF318C0C09151
:10132000CF0413C0C150EC2F0C2E000CFF0BE15862
:10133000FB4F9081E92FEF77F0E0E151FC4F849172
:1013400099230CF481600E9428021C165CF30E9411
:101350003E02CF910895CF93DF93CDB7DEB72897A4
:101360000FB6F894DEBF0FBECDBF8CE08887CE01EC
:1013700001960E945A078B81982F92959F70EFE7F4
:10138000F4E09083209122048F70822B81838A81E4
:10139000982F92959F70922B92838F7083833091B8
:1013A000CF04363059F49F779283822B83838981CF
:1013B000982F92959F7094838F7085830E946D09FA
:1013C00028960FB6F894DEBF0FBECDBFDF91CF9148
:1013D0000895CF93DF93CDB7DEB728970FB6F89473
:1013E000DEBF0FBECDBF8CE08887CE0101960E9484
:1013F0005A078091CF048630A9F4EFE7F4E08DE03E
:1014000080838D81982F92959F7091838F708283B6
:101410008BE083838E81982F92959F7094838F7039
:10142000858328C08D81982F92959F70EFE7F4E017
:1014300090838F70806881838E81982F92959F70A2
:1014400092838F70838384E090E00E94E927843048
:1014500089F4A0E7B4E08C91EFE7F4E0848311967F
:101460008C911197858312968C911297868313968F
:101470008C9187830E946D0928960FB6F894DEBF81
:101480000FBECDBFDF91CF910895FF920F931F93B1
:10149000CF93DF93CDB7DEB76F970FB6F894DEBF6B
:1014A0000FBECDBF84E090E00E94E927F82E41E016
:1014B00065E270E0CE0101960E94B104882361F0DC
:1014C000EFE7F4E08BE0808381838CE082838AE025
:1014D00083830E946D0964C0FF2031F06FE5CE0167
:1014E00001960E94650505C06FE1CE0101960E943C
:1014F0006505CE0101960E946B05CE0101960E9402
:101500002405882309F44CC0CE0101960E948A0567
:101510008E010A5E1F4F24E049E00E9462258F89F8
:101520008D32D9F48BE080937F04FF2059F0888DB1
:10153000EFE7F4E08F708183898D8F7082838CE078
:1015400083832CC0888DEFE7F4E08F708183898DD1
:101550008F7082838CE0838321C0888D8D3221F44B
:101560008BE080937F0403C08F7080937F04FF2003
:1015700061F0898DEFE7F4E08F70806881838B8D57
:101580008F7082838CE0838309C0898DEFE7F4E05C
:101590008F7081838CE082838AE083830E946D094F
:1015A0006F960FB6F894DEBF0FBECDBFDF91CF911F
:1015B0001F910F91FF90089580917604811119C0B9
:1015C000A6E7B4E011968C911197982F92959F7091
:1015D000EFE7F4E090838F708068818312968C919E
:1015E000982F92959F7092838F708383109220041E
:1015F00016C0982F92959F70EFE7F4E090838F705C
:1016000090912204892B818380917704982F929561
:101610009F7092838F70838381E0809320040E9467
:101620006D0908958230E1F4E9E7F4E08FE080830A
:101630008DE081838DEC689F812D112486958695A0
:101640008695982F9F709283880F982F990F990FE6
:10165000890F681B6F70638382E08093D4040895C0
:101660008330E1F4E9E7F4E086E180838DE0818373
:101670008DEC689F812D1124869586958695982FEF
:101680009F709283880F982F990F990F890F681B6D
:101690006F70638382E08093D4040895E9E7F4E0F7
:1016A00091E190838F5F81838DE08283638383E008
:1016B0008093D4040895E9E7F4E097E1908391E002
:1016C000980F9183811116C08DEC689F812D112494
:1016D000869586958695982F9F709283880F982F70
:1016E000990F990F890F681B6F70638382E0809355
:1016F000D4040895E9E7F4E08DE08283638383E016
:101700008093D4040895882359F085B1886085B901
:10171000709399006093980089E0809391000895F8
:101720001092910085B1877F85B9089580E090E09F
:1017300012C0843091054CF4FC01E758FB4F208126
:10174000FC01E158FB4F208305C02DE0FC01E1586E
:10175000FB4F208301962091CF04022E000C330B07
:101760008217930734F30E946D0908958091CF0486
:101770008430A1F48091D404843084F080913004CA
:10178000863661F082E080933104E9E7F4E08181FC
:101790008F77818382818F7782832AC08091CF0463
:1017A0008430A1F48091D404843084F0809130049A
:1017B000853661F082E080933104E9E7F4E08181CD
:1017C0008F77818382818F77828312C080913004EA
:1017D000843421F080913004843669F4109231040D
:1017E000E9E7F4E081818068818383818068838375
:1017F00080E090E030C080913004833679F48091AD
:10180000D404823014F410923104E9E7F4E08181C9
:1018100080688183838180688383EACF109231045A
:10182000E9E7F4E081818068818382818068828336
:10183000838180688383DCCF20913104FC01E20F37
:10184000F11D27FDFA95E758FB4F2081FC01E15877
:10185000FB4F208301968630910574F3EFE7F4E0A7
:101860008DE086838783109222040E946D0908957B
:10187000CF93809179008D3028F082958F70C1E1EF
:10188000C81B01C0C0E1809108018F3FE1F41092B4
:10189000080182E090E00E94E927882319F08093F4
:1018A000090102C0C09309018AE090E00E94E92783
:1018B000882349F088E090E00E94E927682F809112
:1018C00009010E94E60280910801E82F082E000C11
:1018D000FF0BEE5CFB4FC0838F5F809308018C335E
:1018E00054F41EC0E82FF0E0EE5CFB4F9081290F0E
:1018F000311D8F5F03C080E020E030E08C3390F337
:1019000010920801A9E8B8E80E945325969587959A
:10191000929582958F7089279F70892780930901FE
:10192000CF9108950F931F93CF93DF938091740409
:10193000882369F0E4E7F4E081818150818381119B
:1019400006C01092740468EE73E00E94830B86E177
:1019500090E00E94E927182F87E190E00E94E92794
:10196000082F88E190E00E94E927C0917604D0E03A
:10197000212F110F330BC217D30709F540917704BC
:1019800050E0202F000F330B42175307C1F4209172
:10199000780430E0082E000C990B2817390779F4E9
:1019A000C4E7D4E081E0888385E090E00E94E927E5
:1019B000898368ED70E481E00E94830B34C089E183
:1019C00090E00E94E927182F8AE190E00E94E92721
:1019D000082F8BE190E00E94E927212F110F330B94
:1019E000C217D30701F54091770450E0202F000F74
:1019F000330B42175307B9F42091780430E0082ED6
:101A0000000C990B2817390771F4C4E7D4E081E082
:101A1000888385E090E00E94E927898360E672E28E
:101A200081E00E94830BDF91CF911F910F91089568
:101A3000CF93DF9300D000D0CDB7DEB780916F0495
:101A40004AE0BE016F5F7F4F90E00E9482258A814D
:101A5000811108C0EFE7F4E08DE0848389818F7005
:101A6000858307C09981EFE7F4E09F7094838F70BE
:101A7000858380916E044AE0BE016F5F7F4F90E0E6
:101A80000E94822589818F70809385048A818823B2
:101A900021F08F708093860403C08DE080938604CC
:101AA000809187048D3029F4EFE7F4E010861186E9
:101AB00012860F900F900F900F90DF91CF910895A5
:101AC00010921F0410921C04811180930401109243
:101AD00021041092200484E1809303018091040189
:101AE000843018F081E0809304018FEF9FE19093A0
:101AF0002604809325040E94180D08951F920F92CA
:101B00000FB60F921124EF92FF920F931F932F9312
:101B10003F934F935F936F937F938F939F93AF9375
:101B2000BF93CF93DF93EF93FF93A895C0912904C0
:101B3000D0912A042196D0932A04C093290480913D
:101B40002D0490912E04009729F0019790932E0474
:101B500080932D0480912B0490912C04009729F000
:101B6000019790932C0480932B048AE090E00E94CC
:101B7000E927082F82E090E00E94E927182F8111C1
:101B800002C010910901C330D10530F1011124C008
:101B900010922A041092290480912704909128041D
:101BA00001969093280480932704212F30E0281772
:101BB000390720F082B18B7F82B903C082B1846083
:101BC00082B980912704909128044097B1F4109233
:101BD00028041092270411C0C03FDF4F70F000238B
:101BE00061F088E090E00E94E927682F812F0E9431
:101BF000E60210922A041092290480912504909103
:101C0000260401969093260480932504803D9740F6
:101C100008F4F8C09EB184E089278EB9109226049A
:101C20001092250480911B04882349F081508093F1
:101C30001B04811104C060E070E00E94830BC12F7F
:101C4000D0E07E018FEFE81AF80A83E090E00E946E
:101C5000E92790E0E816F90624F48EB180628EB987
:101C600007C021978C179D071CF48EB18F7D8EB90C
:101C700080913004811175C020910301C1E0C20F31
:101C8000C093030180E090E00E94E927D82F81E013
:101C900090E00E94E9278F708A300CF089E02C2FA9
:101CA00030E0082E000C990B880F991F82179307BC
:101CB0000CF040C080910401813051F4D0FF08C085
:101CC0008093210482E0809304011092030132C0CA
:101CD000823061F4D1FF0AC0109221040E94E90908
:101CE00083E0809304011092030124C08330E1F467
:101CF000D2FF1AC0109221041E3030F4011104C02A
:101D000082B1846082B903C082B18B7F82B90E94A4
:101D1000450A82B18B7F82B981E0809304011092E1
:101D200003011092220406C08F5F8093040180E0BB
:101D30000E94600D80912104882309F463C087E02C
:101D400090E00E94E927882331F080912204805896
:101D50008093220403C080E8809322040E94AB0990
:101D600051C080911F04882309F441C0809122044E
:101D7000805880932204882309F1E091D404809153
:101D800031040E2E000CFF0BE81BF10987FDF395C3
:101D9000E158FB4F808180788083E091D40480916A
:101DA00031040E2E000CFF0BE81BF10987FDF395A3
:101DB000E158FB4F80818D60808316C0E091D40490
:101DC000809131040E2E000CFF0BE81BF10987FDFA
:101DD000F395A091D4040A2E000CBB0BA758BB4F5F
:101DE0008C91E158FB4F80830E946D090BC080915C
:101DF0002004882339F080912204805880932204A3
:101E00000E94DC0A82E090E00E94E927811112C062
:101E1000809123049091240401969093240480934C
:101E20002304803E9E4230F010922404109223043A
:101E30000E94380CFF91EF91DF91CF91BF91AF914C
:101E40009F918F917F916F915F914F913F912F91D2
:101E50001F910F91FF90EF900F900FBE0F901F906A
:101E600018951F920F920FB60F9211241F932F9364
:101E70003F934F935F936F937F938F939F93AF9312
:101E8000BF93CF93DF93EF93FF93E6E7F4E01081E6
:101E9000D1812281809130043091300491E08134ED
:101EA00009F090E081E0323409F080E0892B51F0B4
:101EB000CFEFC20F8C2F8F7090E00A9704F1C9EF1B
:101EC000C20F1DC0C1E0C20F8C2F8F7090E00A9727
:101ED000B4F0CA3560F021E02D0F822F8F7090E0B2
:101EE0000A9744F02A3948F4D95FC0E008C0C7E037
:101EF000C20F05C0D22FC0E002C0C0E0D0E0E6E7CC
:101F0000F4E0D183C2830E94DC0A809130048134E2
:101F100029F080913004823409F049C0111147C082
:101F2000D11145C0C11143C01092B100C3E02EC011
:101F300060EA7FE081E00E94830BA8952FEF89E69D
:101F400098E1215080409040E1F700C0000060EA35
:101F50007FE080E00E94830B8D2F07C0E82FF0E028
:101F6000E158FB4F9DE090838F5F8430B8F30E946F
:101F70006D09A8952FEF89E698E1215080409040A7
:101F8000E1F700C000000E94DC0AC150C111D0CFAF
:101F9000A8952FEF8DE399E4215080409040E1F720
:101FA00000C000001092300481E00E94600D0E9489
:101FB000920CFF91EF91DF91CF91BF91AF919F91E3
:101FC0008F917F916F915F914F913F912F911F91D1
:101FD0000F900FBE0F901F901895EF92FF920F93E6
:101FE0001F93CF93DF93CDB7DEB728970FB6F89442
:101FF000DEBF0FBECDBF10E02AC0E12E012E000CC7
:10200000FF08C701805090400E94E927E1E0F0E01E
:10201000EC0FFD1FEE0DFF1D80831250123058F49F
:10202000813198F0E1E0F0E0EC0FFD1FEE0DFF1DB7
:1020300080E180830AC08A3040F0E1E0F0E0EC0FFC
:10204000FD1FEE0DFF1D89E0808311E0100F012FB1
:10205000183098F2E9E7F4E081E1808381E0818340
:102060008DE08283898183838A3018F087E08093B2
:102070007C0483E08093D4041092310481E0809347
:102080001F040E94960B86E68093300410E0C4C1C2
:10209000809105019091060199230CF451C0809123
:1020A0000501909106010A970CF04AC0E091D40412
:1020B0000E2E000CFF0B8091050190910601E75850
:1020C000FB4F80838EEF810F8230D8F4E9E7F4E094
:1020D00082819381E1E0F0E0EC0FFD1FE10FF11D43
:1020E00017FDFA95880F282F220F220F820F890FD4
:1020F00080838091D40483308CF483E08093D40473
:102100000DC08091050190910601E1E0F0E0EC0F37
:10211000FD1FE10FF11D17FDFA9580838FEF9FEFF3
:1021200090930601809305018091D40483302CF4B0
:102130008091D4048F5F8093D4040E94960B6CC16D
:1021400080910501909106014697C1F41730B0F4D3
:102150001F5F8FEF9FEF9093060180930501E1E0F1
:10216000F0E0EC0FFD1FE10FF11D17FDFA95608106
:10217000812F0E94120B0E94960B4EC18091050187
:10218000909106014597C1F41116B4F411508FEFE8
:102190009FEF9093060180930501E1E0F0E0EC0FE2
:1021A000FD1FE10FF11D17FDFA956081812F0E943F
:1021B000120B0E94960B30C180910501909106018F
:1021C000409709F07EC08FEF9FEF909306018093B8
:1021D0000501123051F5212F012E000C330BE1E0E7
:1021E000F0E0EC0FFD1FE20FF31F80818031E8F477
:1021F0008F5FE1E0F0E0EC0FFD1FE20FF31F808343
:10220000E9E7F4E09DEC899F912D11249695969530
:102210009695292F2F702283990F292F220F220F95
:10222000920F891B8F70838349C0133051F5212F82
:10223000012E000C330BE1E0F0E0EC0FFD1FE20F8C
:10224000F31F80818031E8F48F5FE1E0F0E0EC0F74
:10225000FD1FE20FF31F8083E9E7F4E09DEC899F07
:10226000912D1124969596959695292F2F7022835E
:10227000990F292F220F220F920F891B8F708383B2
:102280001DC0212F012E000C330BE1E0F0E0EC0F1C
:10229000FD1FE20FF31F8081893080F48F5FE1E042
:1022A000F0E0EC0FFD1FE20FF31F8083E091D404F8
:1022B0000E2E000CFF0BE758FB4F80830E94960BFD
:1022C000ABC08091050190910601419709F07EC055
:1022D0008FEF9FEF9093060180930501123051F527
:1022E000212F012E000C330BE1E0F0E0EC0FFD1F7D
:1022F000E20FF31F80818823E9F08150E1E0F0E0F4
:10230000EC0FFD1FE20FF31F8083E9E7F4E09DEC83
:10231000899F912D1124969596959695292F2F702A
:102320002283990F292F220F220F920F891B8F7062
:10233000838349C0133051F5212F012E000C330B3C
:10234000E1E0F0E0EC0FFD1FE20FF31F8081882336
:10235000E9F08150E1E0F0E0EC0FFD1FE20FF31F28
:102360008083E9E7F4E09DEC899F912D11249695F7
:1023700096959695292F2F702283990F292F220F3A
:10238000220F920F891B8F7083831DC0212F012E76
:10239000000C330BE1E0F0E0EC0FFD1FE20FF31F48
:1023A0008081823080F08150E1E0F0E0EC0FFD1F91
:1023B000E20FF31F8083E091D4040E2E000CFF0B7C
:1023C000E758FB4F80830E94960B26C08091050141
:1023D00090910601479701F511C0812F012E000C45
:1023E000990BE1E0F0E0EC0FFD1FE80FF91F6081B1
:1023F000805090400E94F1271F5F01C010E018300C
:1024000060F31092300480EF9FEF90932A04809342
:10241000290481E00E94600D80913004811138CE42
:102420001092D404109231041092220428960FB610
:10243000F894DEBF0FBECDBFDF91CF911F910F91FA
:10244000FF90EF900895EF92FF920F931F93CF9319
:10245000DF93CDB7DEB728970FB6F894DEBF0FBE77
:10246000CDBF10E028C0E12E012E000CFF08C701EF
:10247000885F9F4F0E94E927E1E0F0E0EC0FFD1F2D
:10248000EE0DFF1D808311110BC08C3090F0E1E048
:10249000F0E0EC0FFD1FEE0DFF1D8BE0808309C007
:1024A0008A3038F0E1E0F0E0EC0FFD1FEE0DFF1D8B
:1024B000108211E0100F012F1830A8F2E9E7F4E0C4
:1024C00087E1808331E0318399818DEC989F812D64
:1024D0001124869586958695282F2F702283880F44
:1024E000282F220F220F820F981B9F70938382E068
:1024F0008093D4041092310430931F040E94960BF1
:1025000085E68093300410E04DC1809105019091E3
:102510000601992344F180910501909106010A97E3
:1025200014F5E091D4040E2E000CFF0B80910501F0
:1025300090910601E758FB4F8083809105019091AF
:102540000601E1E0F0E0EC0FFD1FE10FF11D17FDCA
:10255000FA9580838FEF9FEF90930601809305019A
:102560000E94960B1FC1809105019091060146972C
:10257000C1F41730B0F41F5F8FEF9FEF9093060107
:1025800080930501E1E0F0E0EC0FFD1FE10FF11D8C
:1025900017FDFA956081812F0E945B0B0E94960BBC
:1025A00001C180910501909106014597C1F4111672
:1025B000B4F411508FEF9FEF9093060180930501C3
:1025C000E1E0F0E0EC0FFD1FE10FF11D17FDFA95C2
:1025D0006081812F0E945B0B0E94960BE3C080916B
:1025E000050190910601409709F052C08FEF9FEFCF
:1025F000909306018093050111112AC0212F012E0D
:10260000000C330BE1E0F0E0EC0FFD1FE20FF31FD5
:1026100080818031E8F48F5FE1E0F0E0EC0FFD1F96
:10262000E20FF31F8083E9E7F4E09DEC899F912D91
:102630001124969596959695292F2F702283990FA0
:10264000292F220F220F920F891B8F7083831DC0A9
:10265000212F012E000C330BE1E0F0E0EC0FFD1F09
:10266000E20FF31F8081893080F48F5FE1E0F0E0BA
:10267000EC0FFD1FE20FF31F8083E091D4040E2EB8
:10268000000CFF0BE758FB4F80830E94960B8AC01B
:102690008091050190910601419709F052C08FEF9A
:1026A0009FEF909306018093050111112AC0212FFD
:1026B000012E000C330BE1E0F0E0EC0FFD1FE20F08
:1026C000F31F80818823E9F08150E1E0F0E0EC0F16
:1026D000FD1FE20FF31F8083E9E7F4E09DEC899F83
:1026E000912D1124969596959695292F2F702283DA
:1026F000990F292F220F220F920F891B8F7083832E
:102700001DC0212F012E000C330BE1E0F0E0EC0F97
:10271000FD1FE20FF31F8081823080F08150E1E0E5
:10272000F0E0EC0FFD1FE20FF31F8083E091D40473
:102730000E2E000CFF0BE758FB4F80830E94960B78
:1027400031C08091050190910601479759F511C05C
:10275000812F012E000C990BE1E0F0E0EC0FFD1F42
:10276000E80FF91F6081885F9F4F0E94F1271F5F6C
:1027700001C010E0183060F388E090E00E94E92783
:102780008093CF048091CF04823024F08091CF04D5
:1027900085311CF084E08093CF041092300481E0F6
:1027A0000E94600D809130048111AFCE1092D4044C
:1027B000109231041092220428960FB6F894DEBFCE
:1027C0000FBECDBFDF91CF911F910F91FF90EF9082
:1027D0000895CF93DF93CDB7DEB760970FB6F89427
:1027E000DEBF0FBECDBFCE0101960E945A078B817E
:1027F000982F92959F70E9E7F4E090838F70818322
:102800008A81982F92959F7092838F70838389819C
:10281000982F92959F7094838F7085830E94B60B3A
:1028200083E7809330041092D40481E080931F04E6
:102830009FC080910501909106019923D4F1809168
:102840000501909106010A97A4F5E091D4040E2E9B
:10285000000CFF0B8091050190910601E758FB4F9A
:1028600080838091D404813041F08091D4048230FF
:1028700021F08091D404833051F4E091D4040E2EE1
:10288000000CFF0BE758FB4F8081806880838FEF3F
:102890009FEF90930601809305018091D4048530C9
:1028A00028F48091D4048F5F8093D4040E94B60BE7
:1028B0005FC08091050190910601459799F4809140
:1028C000D404882309F454C08091D40481508093A7
:1028D000D4040E94B60B8FEF9FEF90930601809374
:1028E000050146C08091050190910601469791F43B
:1028F0008091D4048530E0F58091D4048F5F80937B
:10290000D4040E94B60B8FEF9FEF90930601809343
:1029100005012EC08091050190910601479741F570
:102920008CE0888BE9E7F4E0808120E1829FC001A0
:10293000112491819F70892B8B87828120E1829F56
:10294000C001112493819F70892B8A87848120E1A3
:10295000829FC001112495819F70892B8987CE01A8
:1029600009960E947F071092300481E00E94600D5A
:102970008091300481115DCF1092D4041092310403
:102980001092220410921F0460960FB6F894DEBFD6
:102990000FBECDBFDF91CF9108950F931F93CF93BB
:1029A000DF9300D0CDB7DEB78A838A81823069F0A9
:1029B0001CF4813031F014C0833059F0843069F058
:1029C0000FC080E190E089830BC083E190E08983B0
:1029D00007C086E190E0898303C089E190E08983A4
:1029E0008981082E000C990B0E94E92709E714E061
:1029F00082958F70F80180838981082E000C990BD5
:102A00000E94E9278F70F80181838981082E000CCC
:102A1000990B01960E94E92782958F70F8018283B5
:102A20008981082E000C990B01960E94E9278F706E
:102A3000F80183838981082E000C990B02960E946D
:102A4000E92782958F70F80184838981082E000C14
:102A5000990B02960E94E9278F70F801858383E61F
:102A6000809330041092D40481E080931F0410926C
:102A700031040E94B60BB1C080910501909106010E
:102A80009923D4F180910501909106010A97A4F54C
:102A9000E091D4040E2E000CFF0B80910501909163
:102AA0000601E758FB4F80838091D404813041F0C8
:102AB0008091D404823021F08091D404833051F489
:102AC000E091D4040E2E000CFF0BE758FB4F8081E1
:102AD000806880838FEF9FEF9093060180930501BC
:102AE0008091D404853028F48091D4048F5F809342
:102AF000D4040E94B60B71C080910501909106012B
:102B0000459799F48091D404882309F466C0809194
:102B1000D40481508093D4040E94B60B8FEF9FEFB2
:102B2000909306018093050158C080910501909112
:102B30000601469799F48091D404853008F04DC081
:102B40008091D4048F5F8093D4040E94B60B8FEFE2
:102B50009FEF90930601809305013FC0809105018E
:102B6000909106014797C9F509E714E0F801208123
:102B7000F0E12F9F90011124F801618189816F702C
:102B8000622B082E000C990B0E94F127F80122817C
:102B9000F0E12F9F90011124F80163818981082EB3
:102BA000000C990B6F70622B01960E94F127F801BF
:102BB0002481F0E12F9F90011124F8016581898122
:102BC000082E000C990B6F70622B02960E94F12761
:102BD0001092300481E00E94600D809130048111D8
:102BE0004BCF81E00E94600D0F900F90DF91CF914D
:102BF0001F910F910895CF93DF93CDB7DEB7609704
:102C00000FB6F894DEBF0FBECDBFCE0101960E9475
:102C10005A078D81982F92959F70E9E7F4E0908391
:102C20008F7081838E81982F92959F7092838F7081
:102C300083838F81982F92959F7094838F70858363
:102C40000E94B60B84E6809330041092D40481E095
:102C500080931F049FC080910501909106019923E4
:102C6000D4F180910501909106010A97A4F5E091B5
:102C7000D4040E2E000CFF0B8091050190910601EB
:102C8000E758FB4F80838091D404813041F08091DC
:102C9000D404823021F08091D404833051F4E09147
:102CA000D4040E2E000CFF0BE758FB4F8081806888
:102CB00080838FEF9FEF90930601809305018091B1
:102CC000D404853028F48091D4048F5F8093D40499
:102CD0000E94B60B5FC08091050190910601459757
:102CE00099F48091D404882309F454C08091D404C9
:102CF00081508093D4040E94B60B8FEF9FEF909386
:102D000006018093050146C080910501909106015E
:102D1000469791F48091D4048530E0F58091D404F5
:102D20008F5F8093D4040E94B60B8FEF9FEF909338
:102D30000601809305012EC0809105019091060146
:102D4000479741F58CE0888BE9E7F4E0808120E14A
:102D5000829FC001112491819F70892B8D87828170
:102D600020E1829FC001112493819F70892B8E875F
:102D7000848120E1829FC001112495819F70892B5D
:102D80008F87CE0109960E949D071092300481E042
:102D90000E94600D8091300481115DCF81E00E941E
:102DA000600D60960FB6F894DEBF0FBECDBFDF9109
:102DB000CF910895CF93DF9300D000D000D0CDB74E
:102DC000DEB7809109014AE0BE016F5F7F4F90E05E
:102DD0000E948225EFE7F4E082E180838DE0818329
:102DE0008A81882331F099819F7092838F708383C9
:102DF00007C0EFE7F4E08DE0828389818F708383E1
:102E00008091CF04863031F4EFE7F4E08DE08483E5
:102E1000858322C08091CF048830F4F08CE190E06B
:102E20000E94E9274AE0BE016D5F7F4F90E00E945B
:102E30008225EFE7F4E084E184838DE085838B8154
:102E40008F7086838C81882321F08F708093860415
:102E500003C08DE0809386040E946D092FEF8DE3FF
:102E600099E4215080409040E1F700C000001092AA
:102E7000300481E00E94600D26960FB6F894DEBF04
:102E80000FBECDBFDF91CF9108951F93CF93DF93F6
:102E90002091180530911905809100019091010150
:102EA0002817390709F067C510928C04E091D60401
:102EB0008E2F90E0FC013197E736F10508F05BC5F5
:102EC000EA55FF4F0C944D2581E080938B0440E040
:102ED0000FC0842F042E000C990B9C0122523C4FF2
:102EE000F9012491DC01A657BB4F13962C934F5F39
:102EF000842F413170F3815080938C04E42F440F70
:102F0000FF0BE657FB4F13828DB79EB7855491098F
:102F10000FB6F8949EBF0FBE8DBFADB7BEB711966A
:102F200085E4EAE8F4E001900D928A95E1F70E94C9
:102F30005A08EDB7FEB7EB5BFF4F0FB6F894FEBF34
:102F40000FBEEDBF18C5F8946091D8048CE190E0F5
:102F50000E94F1277894EAE8F4E082E18183138209
:102F60008DB79EB7855491090FB6F8949EBF0FBEDA
:102F70008DBFADB7BEB7119685E401900D928A95CD
:102F8000E1F70E945A08EDB7FEB7EB5BFF4F0FB6B3
:102F9000F894FEBF0FBEEDBFEEC4EAE8F4E080E1B6
:102FA0008183809109018383148281E082838DB7BC
:102FB0009EB7855491090FB6F8949EBF0FBE8DBF82
:102FC000ADB7BEB7119685E401900D928A95E1F7F1
:102FD0000E945A08EDB7FEB7EB5BFF4F0FB6F894AF
:102FE000FEBF0FBEEDBFC7C4F8946091D80482E065
:102FF00090E00E94F1277894EAE8F4E081E181838F
:1030000013828DB79EB7855491090FB6F8949EBF71
:103010000FBE8DBFADB7BEB7119685E401900D927E
:103020008A95E1F70E945A08EDB7FEB7EB5BFF4FB8
:103030000FB6F894FEBF0FBEEDBF9DC48091300463
:10304000813469F080913004813649F081E48093C5
:1030500030048FEF9FEF9093060180930501EAE81B
:10306000F4E085E0818313828DB79EB78554910982
:103070000FB6F8949EBF0FBE8DBFADB7BEB7119609
:1030800085E401900D928A95E1F70E945A08EDB708
:10309000FEB7EB5BFF4F0FB6F894FEBF0FBEEDBF60
:1030A0006AC480913004823469F0809130048236A1
:1030B00049F082E4809330048FEF9FEF90930601F4
:1030C00080930501EAE8F4E086E0818313828DB7FE
:1030D0009EB7855491090FB6F8949EBF0FBE8DBF61
:1030E000ADB7BEB7119685E401900D928A95E1F7D0
:1030F0000E945A08EDB7FEB7EB5BFF4F0FB6F8948E
:10310000FEBF0FBEEDBF37C485E5809330048FEF5F
:103110009FEF90930601809305011092B1001092E9
:10312000B200E6E7F4E010821182128280E8809318
:103130002004EAE8F4E087E0818313828DB79EB72C
:10314000855491090FB6F8949EBF0FBE8DBFADB7E1
:10315000BEB7119685E401900D928A95E1F70E9421
:103160005A08EDB7FEB7EB5BFF4F0FB6F894FEBF02
:103170000FBEEDBF00C487E190E0909306018093FD
:103180000501EAE8F4E082E2818313828DB79EB7FD
:10319000855491090FB6F8949EBF0FBE8DBFADB791
:1031A000BEB7119685E401900D928A95E1F70E94D1
:1031B0005A08EDB7FEB7EB5BFF4F0FB6F894FEBFB2
:1031C0000FBEEDBFD8C3F8948EE090E00E94E927CF
:1031D000882321F081E08093B10003C085E08093D3
:1031E000B1007894EAE8F4E088E1818313828DB736
:1031F0009EB7855491090FB6F8949EBF0FBE8DBF40
:10320000ADB7BEB7119685E401900D928A95E1F7AE
:103210000E945A08EDB7FEB7EB5BFF4F0FB6F8946C
:10322000FEBF0FBEEDBF68E971E281E090E00E9451
:10323000830BFFEF22E587E0F15020408040E1F76B
:1032400000C0000060E070E080E090E00E94830B2E
:1032500092C31092B100EAE8F4E089E1818313821D
:10326000EDB7FEB7E554F1090FB6F894FEBF0FBEF7
:10327000EDBFADB7BEB7119685E4EAE8F4E0019082
:103280000D928A95E1F70E945A088DB79EB78B5B25
:103290009F4F0FB6F8949EBF0FBE8DBF68E971E2D5
:1032A00081E090E00E94830B9FEFE2E5F7E0915010
:1032B000E040F040E1F700C0000060E070E080E036
:1032C00090E00E94830B57C3EAE8F4E084E0818336
:1032D00013828DB79EB7855491090FB6F8949EBF9F
:1032E0000FBE8DBFADB7BEB7119685E401900D92AC
:1032F0008A95E1F70E945A081092300410921E0439
:10330000EDB7FEB7EB5BFF4F0FB6F894FEBF0FBEF5
:10331000EDBF81E090E00E94600D2DC3F894C0E005
:103320000DC08C2F0C2E000C990BFC01EB52FB4FA7
:103330006381885F9F4F0E94F127CF5FC83088F379
:103340007894EAE8F4E088E2818313828DB79EB72F
:10335000855491090FB6F8949EBF0FBE8DBFADB7CF
:10336000BEB7119685E401900D928A95E1F70E940F
:103370005A08EDB7FEB7EB5BFF4F0FB6F894FEBFF0
:103380000FBEEDBFF8C21092300410921E0481E00F
:1033900090E00E94600DEAE8F4E086E08183138209
:1033A0008DB79EB7855491090FB6F8949EBF0FBE96
:1033B0008DBFADB7BEB7119685E401900D928A9589
:1033C000E1F70E945A08EDB7FEB7EB5BFF4F0FB66F
:1033D000F894FEBF0FBEEDBFCEC280911D048111D7
:1033E00081E09091B1009111826090913004953507
:1033F00011F480680BC090913004913411F4806412
:1034000005C090913004923409F48062A6E7B4E0DC
:103410009C91EAE8F4E0938311969C911197948330
:1034200012969C91958390916F04968390916E046F
:103430009783808786E0828380E281838DB79EB701
:10344000855491090FB6F8949EBF0FBE8DBFADB7DE
:10345000BEB7119685E401900D928A95E1F70E941E
:103460005A08EDB7FEB7EB5BFF4F0FB6F894FEBFFF
:103470000FBEEDBF80C280911D04882309F47BC27A
:1034800080916F048F5F80936F04843610F01092E8
:103490006F040E94180D0E94DC0AEAE8F4E081E65D
:1034A000818313828DB79EB7855491090FB6F89426
:1034B0009EBF0FBE8DBFADB7BEB7119685E401901C
:1034C0000D928A95E1F70E945A08EDB7FEB7EB5BC3
:1034D000FF4F0FB6F894FEBF0FBEEDBF4CC28091F8
:1034E0001D04882309F447C280916F0481508093A2
:1034F0006F04843618F083E680936F040E94180DE1
:103500000E94DC0AEAE8F4E082E6818313828DB748
:103510009EB7855491090FB6F8949EBF0FBE8DBF1C
:10352000ADB7BEB7119685E401900D928A95E1F78B
:103530000E945A08EDB7FEB7EB5BFF4F0FB6F89449
:10354000FEBF0FBEEDBF17C280911D04882309F492
:1035500012C280916E048F5F80936E04843610F0E7
:1035600010926E040E94180D0E94DC0AEAE8F4E052
:1035700083E6818313828DB79EB7855491090FB678
:10358000F8949EBF0FBE8DBFADB7BEB7119685E450
:1035900001900D928A95E1F70E945A08EDB7FEB7A7
:1035A000EB5BFF4F0FB6F894FEBF0FBEEDBFE3C15C
:1035B00080911D04882309F4DEC180916E0481503E
:1035C00080936E04843618F083E680936E040E9424
:1035D000180D0E94DC0AEAE8F4E084E68183138295
:1035E0008DB79EB7855491090FB6F8949EBF0FBE54
:1035F0008DBFADB7BEB7119685E401900D928A9547
:10360000E1F70E945A08EDB7FEB7EB5BFF4F0FB62C
:10361000F894FEBF0FBEEDBFAEC180911D0488239C
:1036200009F4A9C1E5EDF4E0838180936F048481FE
:1036300080936E040E94180D0E94DC0AEAE8F4E010
:1036400081E2818313828DB79EB7855491090FB6AD
:10365000F8949EBF0FBE8DBFADB7BEB7119685E47F
:1036600001900D928A95E1F70E945A08EDB7FEB7D6
:10367000EB5BFF4F0FB6F894FEBF0FBEEDBF7BC1F3
:1036800080911D04882309F476C1EFE7F4E080857A
:103690008F5F80878A3010F0109287040E946D0936
:1036A000EAE8F4E085E6818313828DB79EB78554FE
:1036B00091090FB6F8949EBF0FBE8DBFADB7BEB7D0
:1036C000119685E401900D928A95E1F70E945A08BF
:1036D000EDB7FEB7EB5BFF4F0FB6F894FEBF0FBE22
:1036E000EDBF49C180911D04882309F444C1EFE76F
:1036F000F4E081858F5F81878A3010F01092880412
:103700000E946D09EAE8F4E086E6818313828DB7B2
:103710009EB7855491090FB6F8949EBF0FBE8DBF1A
:10372000ADB7BEB7119685E401900D928A95E1F789
:103730000E945A08EDB7FEB7EB5BFF4F0FB6F89447
:10374000FEBF0FBEEDBF17C180911D04882309F491
:1037500012C1EFE7F4E082858F5F82878A3010F034
:10376000109289040E946D09EAE8F4E087E68183FB
:1037700013828DB79EB7855491090FB6F8949EBFFA
:103780000FBE8DBFADB7BEB7119685E401900D9207
:103790008A95E1F70E945A08EDB7FEB7EB5BFF4F41
:1037A0000FB6F894FEBF0FBEEDBFE5C080911D04BB
:1037B000882309F4E0C0A5EDB4E013968C9113972B
:1037C000E6E7F4E0808314968C9114978183159634
:1037D0008C9182831092B2000E94DC0AEAE8F4E045
:1037E00084E2818313828DB79EB7855491090FB609
:1037F000F8949EBF0FBE8DBFADB7BEB7119685E4DE
:1038000001900D928A95E1F70E945A08EDB7FEB734
:10381000EB5BFF4F0FB6F894FEBF0FBEEDBFABC022
:10382000F89410E00DC0C12F012E000CDD0BCE016D
:10383000805090400E94E927C657DB4F8B831F5F63
:10384000183088F37894EAE8F4E088E0828385E22F
:1038500081838DB79EB7855491090FB6F8949EBFAA
:103860000FBE8DBFADB7BEB7119685E401900D9226
:103870008A95E1F70E945A08EDB7FEB7EB5BFF4F60
:103880000FB6F894FEBF0FBEEDBF75C0F89410E000
:103890000DC0C12F012E000CDD0BCE01885F9F4FA4
:1038A0000E94E927C657DB4F8B831F5F183088F3D0
:1038B0007894EAE8F4E088E0828386E281838DB739
:1038C0009EB7855491090FB6F8949EBF0FBE8DBF69
:1038D000ADB7BEB7119685E401900D928A95E1F7D8
:1038E0000E945A08EDB7FEB7EB5BFF4F0FB6F89496
:1038F000FEBF0FBEEDBF3FC0F894C0E00DC08C2FDF
:103900000C2E000C990BFC01EB52FB4F6381805095
:1039100090400E94F127CF5FC83088F37894EAE89E
:10392000F4E087E2818313828DB79EB785549109B5
:103930000FB6F8949EBF0FBE8DBFADB7BEB7119640
:1039400085E401900D928A95E1F70E945A08EDB73F
:10395000FEB7EB5BFF4F0FB6F894FEBF0FBEEDBF97
:103960000AC068E971E281E090E00E94830B8091D7
:10397000D80480931B04DF91CF911F9108951F936A
:10398000CF93DF930E941C08EC01D1115FC080919E
:103990001A048130E1F030F0823041F1833009F4D3
:1039A00045C075C0F894CC2331F08CE190E00E94C2
:1039B000E927C8130AC081E080931A04C093D50494
:1039C0008C2F0E945E0310921804789460C08C2F94
:1039D0000E945E03E5EDF4E0C18381810E948703CC
:1039E0008093190482E080931A0451C080911904D5
:1039F000882399F0E091180481E08E0F80931804D9
:103A0000F0E0EB52FB4FC3838C2F0E945E0380914A
:103A100019048150809319043AC0DD27D093190509
:103A2000C093180583E080931A0431C0E8E1F5E003
:103A300080819181DC2FCC27C80FD91FD183C0830F
:103A40008FEF80931A040E94451721C0EAE8F4E042
:103A500080EF818313828DB79EB7855491090FB68D
:103A6000F8949EBF0FBE8DBFADB7BEB7119685E46B
:103A700001900D928A95E1F70E945A088DB79EB782
:103A80008B5B9F4F0FB6F8949EBF0FBE8DBF0E94F9
:103A90004C03DF91CF911F9108951F920F920FB6A3
:103AA0000F9211242F933F934F935F936F937F93C4
:103AB0008F939F93AF93BF93CF93EF93FF93C09157
:103AC000C0004091C600C8718091950290E00196B7
:103AD0008F7799272091940230E08217930749F05D
:103AE00080939502FC01E856FD4F40830E94BF1C65
:103AF00001C0C2E0C0939302FF91EF91CF91BF91BB
:103B0000AF919F918F917F916F915F914F913F9175
:103B10002F910F900FBE0F901F901895CF93DF93AA
:103B2000E1EBF0E0C0811082D1E0D0931C04A6E765
:103B3000B4E08C91982F92959F70E9E7F4E0908320
:103B40008F70818311968C911197982F92959F7009
:103B500092838F70838312968C91982F92959F7089
:103B600094838F7085830E94B60B1092D404D093F7
:103B70001F0499C080910501909106019923D4F109
:103B800080910501909106010A97A4F5E091D40473
:103B90000E2E000CFF0B8091050190910601E75855
:103BA000FB4F80838091D404813041F08091D40414
:103BB000823021F08091D404833051F4E091D40418
:103BC0000E2E000CFF0BE758FB4F8081806880832E
:103BD0008FEF9FEF90930601809305018091D404AD
:103BE000853028F48091D4048F5F8093D4040E94A0
:103BF000B60B59C08091050190910601459799F443
:103C00008091D404882309F44EC08091D40481505B
:103C10008093D4040E94B60B8FEF9FEF9093060120
:103C20008093050140C0809105019091060146975F
:103C300091F48091D4048530B0F58091D4048F5FE5
:103C40008093D4040E94B60B8FEF9FEF90930601F0
:103C50008093050128C08091050190910601479746
:103C600011F5E9E7F4E0808120E1829FC001112491
:103C700091819F70892BA6E7B4E08C93828120E12B
:103C8000829FC001112493819F70892B11968C9380
:103C90001197848120E1829FC001112495819F703A
:103CA000892B12968C93809105019091060147977C
:103CB00039F080910501909106018F9709F05ACF54
:103CC0001092D404109231041092220410921F0416
:103CD000C093B1000E94180D0E94DC0A809105017A
:103CE00090910601479799F468E971E281E00E949A
:103CF000830B8FEF92E527E0815090402040E1F761
:103D000000C0000060E070E080E00E94830B8FEF55
:103D10009FEF909306018093050110921C04DF91A0
:103D2000CF9108951F93CF93DF9300D0CDB7DEB727
:103D3000CE0101960E943E03882309F4D7C10E9458
:103D40001D039EB184E089278EB929813A81C9017A
:103D5000807C97700024880F991F001C880F991F82
:103D6000001C892F902D122F1F7322273870932F3C
:103D700096959695969540910701042E000C550B4B
:103D8000292F30E04217530711F0882361F040914A
:103D90000701042E000C550B2417350709F42EC11A
:103DA000833009F02BC190930701812F90E090930D
:103DB000060180930501812F90E0FC013A97E533DD
:103DC000F10508F089C1E35FFE4F0C944D25109278
:103DD0006F0410926E04EFE7F4E0108611861286ED
:103DE0000E94180D8FEF9FEF9093060180930501BD
:103DF00073C180913004813409F46EC18091300424
:103E0000813609F469C181E4809330048FEF9FEF1C
:103E100090930601809305015FC180913004823444
:103E200009F45AC180913004823609F455C182E404
:103E3000809330048FEF9FEF9093060180930501EC
:103E40004BC180913004853509F446C1809130041E
:103E5000853709F441C185E5809330048FEF9FEFEA
:103E6000909306018093050137C18091300483351A
:103E700009F432C180913004833709F42DC183E500
:103E8000809330048FEF9FEF90930601809305019C
:103E900023C180913004843409F41EC18091300420
:103EA000843609F419C184E4809330048FEF9FEFC6
:103EB00090930601809305010FC1809130048634F0
:103EC00009F40AC180913004863609F405C186E4FC
:103ED000809330048FEF9FEF90930601809305014C
:103EE000FBC080913004853409F4F6C08091300421
:103EF000853609F4F1C085E4809330048FEF9FEF9D
:103F00009093060180930501E7C0809130048334CB
:103F100089F080913004833669F083E48093300423
:103F200081E080931E048FEF9FEF909306018093B2
:103F30000501D2C080913004833429F0809130048F
:103F4000833609F0C9C01092300482E080931E04C9
:103F50008FEF9FEF9093060180930501BDC0809184
:103F600030048334A9F080913004833689F0809145
:103F70001E04833069F083E48093300483E08093EF
:103F80001E048FEF9FEF9093060180930501A4C05C
:103F900080913004833609F09FC080911E048330E5
:103FA00009F09AC01092300484E080931E048FEFD1
:103FB0009FEF90930601809305018EC080911C04B1
:103FC00081118AC01092300410921E0481E00E9478
:103FD000600D82C0809130048F3409F47DC08091DF
:103FE00030048F3409F478C08FE4809330048FEF6D
:103FF0009FEF90930601809305016EC080911D0490
:10400000882309F469C0812F90E0FC013797EB31D8
:10401000F10508F061C0EE5BFE4F0C944D258091D8
:104020006F048F5F80936F04843610F010926F04DA
:104030000E94180D0E94DC0A4FC080916F048150CD
:1040400080936F04843618F083E680936F040E9497
:10405000180D0E94DC0A40C080916E048F5F80932F
:104060006E04843610F010926E040E94180D0E94A7
:10407000DC0A32C080916E04815080936E048436D5
:1040800018F083E680936E040E94180D0E94DC0AEB
:1040900023C0EFE7F4E080858F5F80878A3010F0DF
:1040A000109287040E946D0917C0EFE7F4E0818544
:1040B0008F5F81878A3010F0109288040E946D090A
:1040C0000BC0EFE7F4E082858F5F82878A3010F0C3
:1040D000109289040E946D091D3041F468E971E273
:1040E00081E00E94830B82E080931B040F900F906D
:1040F000DF91CF911F9108951F920F920FB60F92EB
:1041000011242F933F934F935F936F937F938F93DC
:104110009F93AF93BF93CF93EF93FF9380918400CE
:10412000909185001A9B02C0C2E001C0C0E09C01D2
:10413000275335402737334010F4CC5F07C08C5BE2
:1041400091408A37934010F00E941D032091020194
:10415000253001F58091D30481508093D30421E070
:1041600030E0A90102C0440F551F8A95E2F7CA0149
:104170002091D0043091D104822B932B9093D104C1
:104180008093D00481E08093020110928500109208
:1041900084004CC0E22FF0E0E65FFE4F808190E0AB
:1041A00002C095958795CA95E2F78370281711F09C
:1041B000243018F00E941D0339C080930201823020
:1041C00031F49091D30491509093D30418C081306E
:1041D000B1F49091D30491509093D30421E030E056
:1041E00002C0220F331F9A95E2F74091D0045091FC
:1041F000D104242B352B3093D1042093D0049091FB
:10420000D30491110FC0882311F0823059F486E055
:104210008093020181E08093D2048DB38B7F8DBBAC
:104220000E94921E1092850010928400FF91EF91DF
:10423000CF91BF91AF919F918F917F916F915F913E
:104240004F913F912F910F900FBE0F901F90189597
:10425000CF93C82F8CE090E00E94E927882309F4CF
:10426000CBC0C23061F020F4C13009F492C0E2C08A
:10427000C43009F4BAC0C83009F45FC0DBC0809113
:104280001D04882369F080912D0490912E04892BC0
:1042900039F487E190E09093060180930501CAC04C
:1042A00080912B0490912C04892B91F18BE090E06C
:1042B0000E94E927813071F018F08230A9F01EC009
:1042C00085E5809330048FEF9FEF909306018093F4
:1042D0000501B0C081E4809330048FEF9FEF90938D
:1042E000060180930501A6C082E4809330048FEF1D
:1042F0009FEF90930601809305019CC085E5809314
:1043000030048FEF9FEF909306018093050192C0D8
:1043100080912D0490912E04892B41F0109230044D
:1043200010921E0481E00E94600D84C080EA9FE02C
:1043300090932C0480932B047DC080911D048823CE
:1043400009F478C080912D0490912E04892B99F066
:1043500080EA9FE090932E0480932D0480916F0457
:10436000815080936F04843618F083E680936F0445
:104370000E94180D09C080916F048F5F80936F04B5
:10438000843610F010926F040E94180D0E94DC0A0F
:1043900051C080911D04882309F44CC080912D04E4
:1043A00090912E04892B99F080EA9FE090932E043F
:1043B00080932D0480916E04815080936E04843626
:1043C00018F083E680936E040E94180D09C0809156
:1043D0006E048F5F80936E04843610F010926E042A
:1043E0000E94180D0E94DC0A25C080EA9FE090938D
:1043F0002E0480932D041EC080911D048823D1F0CB
:10440000C23069F018F4C13031F014C0C43059F032
:10441000C83069F00FC081E080932F040BC082E0A8
:1044200080932F0407C083E080932F0403C084E0AF
:1044300080932F04CF9108951F920F920FB60F9281
:1044400011242F933F934F935F936F937F938F9399
:104450009F93AF93BF93EF93FF9389B1809582951C
:104460008F7090E00E942821FF91EF91BF91AF9152
:104470009F918F917F916F915F914F913F912F917C
:104480000F900FBE0F901F90189580912F048230CF
:1044900099F01CF4813031F02EC08330C1F08430AB
:1044A00001F129C080916F048F5F80936F0484367F
:1044B00010F110926F041FC080916F04815080939F
:1044C0006F048436C0F083E680936F0414C080913B
:1044D0006E048F5F80936E04843668F010926E04D1
:1044E0000AC080916E04815080936E04843618F067
:1044F00083E680936E040E94180D0E94DC0A90E00F
:1045000013C02FEF39EF80E0215030408040E1F7B9
:1045100000C000008FEF05C0A89589B180958295F5
:104520008F708111F9CF9F5F933058F310922F0451
:104530000895CF93DF932FEF3FEF30930601209341
:1045400005011092B20090E890932004813091F41C
:1045500080E190E00E94E927C6E7D4E0888381E10A
:1045600090E00E94E927898382E190E00E94E92798
:104570008A8313C0823089F483E190E00E94E927A6
:10458000C6E7D4E0888384E190E00E94E92789832C
:1045900085E190E00E94E9278A830E94DC0A36C008
:1045A0008091050190910601479719F58091B1001E
:1045B000811104C085E08093B10002C01092B10067
:1045C0008FEF9FEF909306018093050168E971E2F8
:1045D00081E00E94830B2FEF82E597E0215080401D
:1045E0009040E1F700C0000060E070E080E00E94D1
:1045F000830B80912F0481110E9445228091050137
:10460000909106018D9711F40E948E1D80913004C7
:104610008111C6CF1092B10068EA78E481E00E946F
:10462000830B2FEF82E597E0215080409040E1F727
:1046300000C0000060E070E080E00E94830BDF912A
:10464000CF9108958FEF9FEF90930601809305011E
:104650001092B200E6E7F4E010821182128280E844
:10466000809320040E94DC0A36C08091050190915D
:104670000601479719F58091B100811104C085E0CA
:104680008093B10002C01092B1008FEF9FEF909322
:1046900006018093050168E971E281E00E94830BC5
:1046A0002FEF82E597E0215080409040E1F700C075
:1046B000000060E070E080E00E94830B80912F0496
:1046C00081110E94452280910501909106018D97EC
:1046D00011F40E948E1D809130048111C6CF10927A
:1046E000B10068EA78E481E00E94830B2FEF82E555
:1046F00097E0215080409040E1F700C0000060E06A
:1047000070E080E00E94830B089599E288E10FB683
:10471000F894A895809360000FBE9093600083E4A6
:104720008DB982E08EB981E985B989E684B980EFD7
:104730008BB91AB886E680937C0080EE80937A006D
:1047400084E080937B008FEB80937E0088E090E094
:104750000E94E9278093CF048091CF04823024F017
:104760008091CF0485311CF084E08093CF040E94B7
:1047700023020E94660983E390E00E94FB07F894FD
:104780000E94380C82B18B7F82B90E9445020E9440
:104790002E030E942B068DB184608DB982E085BD09
:1047A00081E080936E0080937000E6EBF0E0808102
:1047B0008062808380E48093900060E87EE381E003
:1047C0000E94830B2FE788E391E0215080409040C6
:1047D000E1F700C0000060E070E080E00E94830B21
:1047E0001092300481E00E94600D0E94180D7894B0
:1047F0000E946D0910921D0450C0E09130048E2F6C
:10480000EE0F990BAA0BBB0BFC01E154F109E5314A
:10481000F10508F042C0E35AFE4F0C944D2581E0AB
:1048200080931D040E94180D81E090E00E9499225F
:1048300034C081E080931D040E94180D82E090E056
:104840000E9499222AC081E080931D040E94180DC5
:104850000E94222322C00E94E9131FC00E94FB1560
:104860001CC00E94DA1619C00E94ED0F16C00E94EB
:10487000231213C080911E040E94CD1480911E0447
:10488000823029F40E94CD1410921E0406C0843098
:1048900021F40E94CD1410921E04809130048111E5
:1048A000ACCFA8CFE89409C097FB3EF490958095D3
:1048B000709561957F4F8F4F9F4F9923A9F0F92FE6
:1048C00096E9BB279395F695879577956795B79564
:1048D000F111F8CFFAF4BB0F11F460FF1BC06F5F4A
:1048E0007F4F8F4F9F4F16C0882311F096E911C05C
:1048F000772321F09EE8872F762F05C0662371F07D
:1049000096E8862F70E060E02AF09A95660F771F90
:10491000881FDAF7880F9695879597F908950E9472
:10492000A2240C9413250E94052538F00E940C2522
:1049300020F0952311F00C94FC240C9402251124F2
:104940000C9447250E94242570F3959FC1F3950F81
:1049500050E0551F629FF001729FBB27F00DB11D03
:10496000639FAA27F00DB11DAA1F649F6627B00D93
:10497000A11D661F829F2227B00DA11D621F739F7C
:10498000B00DA11D621F839FA00D611D221F749F8A
:104990003327A00D611D231F849F600D211D822FD1
:1049A000762F6A2F11249F5750409AF0F1F08823F8
:1049B0004AF0EE0FFF1FBB1F661F771F881F915025
:1049C0005040A9F79E3F510580F00C94FC240C94B4
:1049D00047255F3FE4F3983ED4F386957795679536
:1049E000B795F795E7959F5FC1F7FE2B880F911D4F
:1049F0009695879597F9089597F99F6780E870E0F5
:104A000060E008959FEF80EC089500240A94161644
:104A1000170618060906089500240A9412161306AC
:104A2000140605060895092E0394000C11F488233A
:104A300052F0BB0F40F4BF2B11F460FF04C06F5F56
:104A40007F4F8F4F9F4F089557FD9058440F551F2C
:104A500059F05F3F71F04795880F97FB991F61F000
:104A60009F3F79F087950895121613061406551F77
:104A7000F2CF4695F1DF08C0161617061806991FE3
:104A8000F1CF86957105610508940895E894BB27D8
:104A900066277727CB0197F90895EE0FFF1F059042
:104AA000F491E02D0994A29FB001B39FC001A39F90
:104AB000700D811D1124911DB29F700D811D112457
:104AC000911D0895EF920F931F93CF93DF93E80109
:104AD00047FD02C034E001C034E1042E000C550B48
:104AE00057FF03C0519541955109E32E022F242F02
:104AF000AE010E94A725CE01DF91CF911F910F91AA
:104B0000EF900895BB274A3031F4992322F4BDE297
:104B1000909581959F4F0C948E25BB27FB015527BF
:104B2000AA27880F991FAA1FA41710F0A41B83950A
:104B30005051B9F7A05DAA3308F0A95DA193009781
:104B400079F7B111B1931192CB010C94D927A9E057
:104B5000B0E0EDEAF5E20C9405286A01122FB02EC0
:104B60002BE3201720F0FF24F394F00E02C02CE377
:104B7000F22E0F2D27E0AE014F5F5F4F0E940127FD
:104B8000BC014981842F8970813031F0E1FC06C07D
:104B9000E0FE06C090E205C09DE203C09BE201C0BA
:104BA00090E05E2D507143FF3CC0911102C083E044
:104BB00001C084E0811718F4212F281B01C020E0D8
:104BC00051110BC0F601822F30E2882319F0319386
:104BD0008150FBCFC20ED11C20E0992329F0D601D1
:104BE0009C93F60131966F01C6010396E2FE0AC05E
:104BF0003EE4D6013C9341E411964C9311971296F2
:104C00003C9306C03EE6F601308341E641833283A1
:104C1000FC01322F40E2332309F442C0419331506A
:104C2000FACF42FF44C0911102C083E001C084E08A
:104C3000811718F4212F281B01C020E051110BC04F
:104C4000F601822F30E2882319F031938150FBCF97
:104C5000C20ED11C20E0992329F0D6019C93F601C5
:104C600031966F01C6010396E2FE0BC039E4D6010E
:104C70003C933EE411963C93119736E412963C9394
:104C800007C039E6F60130833EE6318336E63283EB
:104C9000FC01322F40E2332319F041933150FBCF16
:104CA000FC01E20FF11D10828EEF9FEFA6C021E004
:104CB00030E0911102C020E030E0161617061CF417
:104CC000FB01319602C0E1E0F0E02E0F3F1FBB2058
:104CD00021F0EB2DF0E0319602C0E0E0F0E02E0F85
:104CE0003F1FE12FF0E02E173F071CF4121B212F6E
:104CF00001C020E08E2D887159F4F601822F30E238
:104D0000882319F031938150FBCFC20ED11C20E0D3
:104D1000992329F0D6019C93F60131966F01511128
:104D20000BC0F601822F90E3882319F091938150F4
:104D3000FBCFC20ED11C20E00F2D060F9A81342F1D
:104D4000307144FF03C0913309F40150101624F46C
:104D5000093018F008E001C001E0AB0177FF02C0A4
:104D600040E050E0FB01E41BF50BA1E0B0E0AC0F2C
:104D7000BD1FEA0FFB1F8EE2A82E4B01801A91087F
:104D80000B2D10E01195019511094F3FBFEF5B0707
:104D900021F4D601AC9211966D01641775072CF0C1
:104DA0008416950614F4818101C080E341505109B5
:104DB0003196D60111967D014017510724F0D60196
:104DC0008C936701E2CF6417750739F4963320F4AA
:104DD000953319F4311101C081E3F6018083F701A5
:104DE000822F90E2882319F091938150FBCFF70135
:104DF000E20FF11D108280E090E02996ECE00C9427
:104E00002128283008F027E03327DA01990F311DD7
:104E100087FD916000966105710539F432602E5F5F
:104E20003D9330E32A95E1F708959F3F30F08038B5
:104E30007105610509F03C5F3C5F3D93913008F0DE
:104E40008068911DDF93CF931F930F93FF92EF9292
:104E5000192F987F9695E92F96959695E90FFF273C
:104E6000E25CFC4F99273327EE24FF24A701E701DA
:104E700005900894079428F4360FE71EF81E491F82
:104E8000511D660F771F881F991F0694A1F7059083
:104E9000079428F4E70EF81E491F561FC11D770F0F
:104EA000881F991F661F0694A1F70590079428F4A0
:104EB000F80E491F561FC71FD11D880F991F661F67
:104EC000771F0694A1F70590079420F4490F561F09
:104ED000C71FD81F990F661F771F881F0694A9F751
:104EE00084911095177041F0D695C79557954795C1
:104EF000F794E7941A95C1F7E4EEF2E06894159000
:104F0000159135916591959105907FE27395E11822
:104F1000F10A430B560BC90BD009C0F7E10CF11E87
:104F2000431F561FC91FD01D7EF4703311F48A959C
:104F3000E6CFE894015030F0080F0AF4002702177A
:104F400008F4202F2395022F7A3328F079E37D93FC
:104F50002A95E9F710C07D932A9589F606949795CE
:104F60006795379517951794E118F10A430B560B7F
:104F7000C90BD00998F023957E9173957A3308F088
:104F800070E37C932013B8F77E9170617D9330F0CD
:104F9000839571E37D9370E32A95E1F71124EF90F7
:104FA000FF900F911F91CF91DF91992787FD9095E9
:104FB0000895DC01FC01672F71917723E1F73297A7
:104FC00004C07C916D9370836291AE17BF07C8F3E4
:104FD0000895F999FECF92BD81BDF89A992780B5C1
:104FE0000895262FF999FECF1FBA92BD81BD20BD2D
:104FF0000FB6F894FA9AF99A0FBE019608952F9277
:105000003F924F925F926F927F928F929F92AF9258
:10501000BF92CF92DF92EF92FF920F931F93CF93A5
:10502000DF93CDB7DEB7CA1BDB0B0FB6F894DEBF3C
:105030000FBECDBF09942A88398848885F846E8462
:105040007D848C849B84AA84B984C884DF80EE80AC
:10505000FD800C811B81AA81B981CE0FD11D0FB6B5
:10506000F894DEBF0FBECDBFED010895F894FFCFD9
:0E507000FFFF051401FFFFFFFF1001919BFBE6
:00000001FF
