:100000000C940D010C942A010C942A010C94FC1CF4
:100010000C942A010C942A010C942A010C94611E60
:100020000C942A010C942A010C942A010C94C50CFE
:100030000C942A010C942A010C942A010C942A0194
:100040000C942A010C942A010C942B0B0C942A0179
:100050000C94231A0C94F1050C9422060C942A019A
:100060000C942A010C942A010C942A010C942A0164
:100070000C940C070C9441070C9472070C942A0101
:100080000C942A010C942A010C942A010C942A0144
:100090000C942A010C942A010C942A010C942A0134
:1000A0000C942A010C942A010C942A010C942A0124
:1000B0000C942A010C942A010C94D3060C942A0166
:1000C0000C942A010C942A010C942A0146204D20FC
:1000D0006C206020692066203120312031203120C1
:1000E0003120312031203120632031203120312056
:1000F0005D203120562000407A10F35A00A0724E45
:1001000018090010A5D4E80000E87648170000E4BC
:100110000B54020000CA9A3B000000E1F505000004
:1001200080969800000040420F000000A086010069
:100130000000102700000000E80300000000640039
:10014000000000000A0000000000010000000000A4
:100150002C76D888DC674F0823DFC1DFAE59E1B1C8
:10016000B796E5E3E453C63AE651997696E8E6C2D7
:100170008426EB898C9B62ED407C6FFCEFBC9C9FDE
:1001800040F2BAA56FA5F490055A2AF75C936B6C00
:10019000F9676DC11BFCE0E40D47FEF520E6B500F4
:1001A000D0ED902E0300943577050080841E080062
:1001B00000204E0A000000C80C333333330F986E12
:1001C00012831141EF8D2114893BE65516CFFEE6CF
:1001D000DB18D1844B381BF77C1D901DA4BBE42495
:1001E000203284725E228100C9F124ECA1E53D2712
:1001F00053434F5245424F4152445F562E312E32A7
:1002000000EE067C3E96BAFA26FEBEE810B400F474
:10021000DA01F05A52F6D8C8F80011241FBECFEF09
:10022000D8E0DEBFCDBF11E0A0E0B1E0E6EEF8E43B
:1002300002C005900D92AE30B107D9F725E0AEE0CF
:10024000B1E001C01D92AA31B207E1F70E94BE1FC2
:100250000C9471240C9400002B9A90939900809335
:10026000980089E080939100089584E082B98FE33B
:1002700081B9089598E080FF02C0109A01C01098DB
:10028000119A119885959150B1F70895139A139882
:1002900008950F931F93CF93DF93C0E08091CF0415
:1002A0002C2F30E0082E000C990B281739072CF45E
:1002B0008FEF0E943A01CF5FF1CF0E944601A895CF
:1002C0002FEF83EC99E0215080409040E1F700C08F
:1002D000000008E010E0D0E8C0E08091CF042C2FAF
:1002E00030E0082E000C990B281739072CF48D2FBD
:1002F0000E943A01CF5FF1CF0E944601A8952FEFEF
:1003000083EC99E0215080409040E1F700C000006C
:10031000D6950150110901F7DF91CF911F910F91EF
:100320000895129A1398119A11981298119A119887
:10033000129A119A1198139A119A11981398119A66
:1003400011980895129A1398119A11981298119A67
:100350001198129A119A1198119A1198119A11984C
:1003600012980895CF93DF93C82FD62F0E94910142
:1003700020E1C29FC00111248F3F910589F084F0D4
:100380008FEF0EC0973009F4139A20FF0EC0109A19
:10039000119A119826959F5F9830A1F71398D15024
:1003A000DD2329F0282F90E0F0CF1098F1CFDF91D6
:1003B000CF910C94A201A8951092D2048EE0809364
:1003C000D3041092D1041092D00485E080930201EE
:1003D000EA9A0895E9E6F0E08081806180832298BE
:1003E0001092800082E0809381000C94DB012091C8
:1003F000D204222339F02091D0043091D104FC01A1
:10040000318320838091D204089591E099BB2EB16D
:1004100080E482278EB920E030E83093A500209355
:10042000A40082E08093A10090937200089520912F
:10043000000130910101A9014827CA0128E030E0FC
:10044000AC015695479580FF06C0CA0161E086273A
:1004500060EA962701C0CA012150310989F79093BB
:100460000101809300010895873109F148F4833137
:10047000C1F018F48131D8F418C0843191F015C05E
:10048000873289F028F4813251F0843251F00DC066
:10049000813429F0803549F48091CF04089582E0B9
:1004A000089583E0089588E0089580E0089581E04C
:1004B0000895FC01A081B1814E9121E030E0C90195
:1004C000028002C0880F991F0A94E2F7842B8C9354
:1004D0008FEB93E00197F1F700C00000A081B1819C
:1004E0009E91A901028002C0440F551F0A94E2F7B1
:1004F000842F809589238C9395ED9A95F1F70000D0
:10050000A081B18112978C91028002C0220F331F0B
:100510000A94E2F78223EFE1F3E03197F1F700C0AC
:1005200000000895FC01A081B1814E9121E030E0EE
:10053000C901028002C0880F991F0A94E2F7842B38
:100540008C93662399F088E28A95F1F7A081B181B6
:100550008E91028002C0220F331F0A94E2F7209589
:1005600028232C9388E78A95F1F7089580EA8A95E5
:10057000F1F7A081B1818E91028002C0220F331F5A
:100580000A94E2F7209528232C930895FC01A0817A
:10059000B1814E9181E090E09C01028002C0220F67
:1005A000331F0A94E2F7242B2C932AE02A95F1F7C3
:1005B00000C0A081B1812E91028002C0880F991FD6
:1005C0000A94E2F7809582238C9385E18A95F1F76E
:1005D0000000A081B18112972C9130E0C901028006
:1005E00002C0959587950A94E2F7817090E89A95F4
:1005F000F1F70895EF92FF920F931F93CF93DF933C
:100600007C01062FC8E0D0E011E0602F6123C70114
:100610000E949202110F2197C1F7DF91CF911F9194
:100620000F91FF90EF900895EF92FF920F931F9319
:10063000CF93DF937C0108E010E0D1E0C0E0C70178
:100640000E94C6028111CD2BDD0F01501109B9F7AF
:100650008C2FDF91CF911F910F91FF90EF90089514
:10066000282FFC0180E09E2F921B961750F4919149
:10067000892798E03CE8869508F483279A95D9F76E
:10068000F2CF0895CF92DF92EF92FF920F931F93D4
:10069000CF93DF93EC0163E30E94FA028E010D5FBA
:1006A0001F4F6E018BE0C80ED11C7801CE010E9455
:1006B0001403F80181938F01EC15FD05B9F767E08C
:1006C000C7010E94300391E02A85281390E0892F0A
:1006D000DF91CF911F910F91FF90EF90DF90CF901E
:1006E00008951F93CF93DF93EC01798368834A8346
:1006F000FB01308181E090E0FC0102C0EE0FFF1FA2
:100700004A95E2F72E2F20952323FB012083E881D1
:10071000F98122910A8002C0880F991F0A94E2F79A
:10072000809582238083CE010E945902182F811167
:1007300011C0CE010E944203882361F08B81803179
:1007400039F0883239F481E08C8B8FE78F8703C0D2
:100750001C8A01C011E0812FDF91CF911F91089574
:10076000CF92DF92EF92FF920F931F93CF93DF937D
:10077000EC010E9459026CECCE010E94FA026EEB71
:10078000CE010E94FA028E01055F1F4F6E0184E1C7
:10079000C80ED11C7801CE010E941403F801819388
:1007A0008F01EC15FD05B9F768E0C7010E94300321
:1007B00091E02B89281390E0892FDF91CF911F9131
:1007C0000F91FF90EF90DF90CF900895CF93DF933C
:1007D000EC010E9459026CECCE010E94FA0264E422
:1007E000CE010E94FA028F858F3361F08F3591F030
:1007F0008F31C1F42FE78BE492E02150804090408C
:10080000E1F717C02FEF86E994E021508040904037
:10081000E1F70FC02FEB87E299E021508040904034
:10082000E1F707C02FE78FE492E12150804090402C
:10083000E1F700C00000CE01DF91CF910C94B0032E
:10084000CF93DF93EC010E9459026CECCE010E9421
:10085000FA026EE4CE010E94FA026D85CE010E947A
:10086000FA026E85CE010E94FA028C89813031F441
:100870006F85CE01DF91CF910C94FA02DF91CF9179
:100880000895FC016385748577FF02C04FEF01C0B6
:1008900041E08489882309F45AC087858F33A9F001
:1008A00020F48F3109F443C05FC08F3541F18F3799
:1008B00009F05AC0072E000C880B990B0E947E206D
:1008C00020E030E040E85DE34CC077FF03C0719565
:1008D000619571099B0135952795359527954203BB
:1008E000B001439F700D1124072E000C880B990B4B
:1008F0000E947E2020E030E040E85EE332C077FFD7
:1009000003C07195619571099B0135952795420347
:10091000B001439F700D1124072E000C880B990B1A
:100920000E947E2020E030E040E05EE31AC077FFC6
:1009300003C07195619571099B0183E035952795F9
:100940008A95E1F74203B001439F700D1124072EF1
:10095000000C880B990B0E947E2020E030E040E0E4
:100960005FE30E94B920089560E070E0CB01089534
:1009700087B1836087B90F9A089540981798179A9E
:100980008AE08A95F1F700C00895399A98E0419875
:1009900080FD419A409825E02A95F1F70000409AA1
:1009A00025E02A95F1F700008695915081F708958A
:1009B000CF93DF93D82FC62F0E94BD048D2F0E94A6
:1009C000C5048C2F0E94C50417984098DF91CF91E1
:1009D0000895399828E080E0409A95E09A95F1F7DB
:1009E0000000409895E09A95F1F7000096B1869541
:1009F00096959170979599279795892B215061F736
:100A00000895CF93C82F0E94BD048C2F0E94C50467
:100A10000E94E90417984098CF910895CF93DF93EF
:100A2000EC01962F642F2F30A1F5943129F481E841
:100A30000E940105888371C0953129F483E80E94E2
:100A4000010589836AC0963139F485E80E94010561
:100A50009CE09F838A8361C09B3129F48BE80E94CC
:100A600001058B835AC0973129F487E80E9401055C
:100A70008C8353C0983129F489E80E9401058D8345
:100A80004CC0993109F049C08DE80E9401058E8360
:100A900044C0203109F041C0943111F480E839C0DC
:100AA000953111F482E835C0963101F59F819A3075
:100AB00059F4842F692F0E94772120E1829FB00191
:100AC0001124607190680CC09B3061F4842F6AE03F
:100AD0000E94772120E1829FB00111246071906A09
:100AE000692B02C09C30C9F484E813C09B3111F417
:100AF0008AE80FC0973111F486E80BC0983111F4E1
:100B000088E807C0993111F48CE803C09A3129F4C0
:100B10008EE8DF91CF910C94D804DF91CF910895A6
:100B20002FE040E00C940E05CF93DF93EC0164E1DD
:100B30000E94900565E1CE010E94900566E1CE011C
:100B40000E9490056BE1CE010E94900567E1CE0105
:100B50000E94900568E1CE010E94900569E1CE01F6
:100B6000DF91CF910C94900520E10C940E05CF936A
:100B7000DF93EC0140E06AE10E94B4054A8166E13E
:100B8000CE010E94B405498165E1CE010E94B40501
:100B9000488164E1CE010E94B40541E06AE1CE01E2
:100BA000DF91CF910C94B405CF93DF93EC0140E03B
:100BB0006AE10E94B4054E8169E1CE010E94B4054C
:100BC0004D8168E1CE010E94B4054C8167E1CE0100
:100BD0000E94B40541E06AE1CE01DF91CF910C940F
:100BE000B4051F920F920FB60F9211248F939F930B
:100BF000EF93FF939091970280919602981779F066
:100C00008091960290E00196FC01FF278093960266
:100C1000149AE85EFC4F80818093C6000AC08091E0
:100C2000C1008F7D8093C1008091C100806480935A
:100C3000C100FF91EF919F918F910F900FBE0F9088
:100C40001F9018951F920F920FB60F9211241498AF
:100C50000F900FBE0F901F901895F8941092970266
:100C6000109296021092950210929402789497FF37
:100C700004C022E02093C0009F779093C50080932A
:100C8000C40088E98093C10086E08093C200089583
:100C9000F8949091950280919402981304C07894EE
:100CA00080E091E0089578948091940290E001961C
:100CB0008F77992780939402FC01E856FD4F20819D
:100CC0008091930290E0982F8827820F911D0895BC
:100CD0002091970230E02F5F3F4FA9015527609187
:100CE000960270E046175707D1F3FA01E85EFC4F11
:100CF0008083209397028091C10080628093C1001D
:100D00000895FF920F931F93CF93DF93CDB7DEB774
:100D100009851A858FEF9FEF909301018093000161
:100D2000F8948CE190E00E942424F82E78940E949C
:100D30001702802F0E9417028F2D0E946806802FB5
:100D40000E94680611110EC01091010180910001EE
:100D50000E946806812FDF91CF911F910F91FF9024
:100D60000C946806812F0E941702812F0E9468064A
:100D700000E0EBE0F0E0EC0FFD1FE00FF11D07FDE0
:100D8000FA95F0808F2D0E9468060F5F8F2D0E94CC
:100D900017020113EECFD8CFF8948091940280937C
:100DA0009502789408951F920F920FB60F92112416
:100DB0002F933F934F935F936F937F938F939F9363
:100DC000AF93BF93EF93FF9376980E94CC06109257
:100DD0001A048FEF9FEF9093010180930001E5EDDE
:100DE000F4E0808310921905109218058183128215
:100DF00013821092A100FF91EF91BF91AF919F914B
:100E00008F917F916F915F914F913F912F910F90B3
:100E10000FBE0F901F9018951F920F920FB60F9252
:100E200011242F933F934F935F938F939F93EF934F
:100E3000FF932091C8003091CE002871809110015D
:100E400090E001968F77992740910F0150E0841729
:100E5000950739F080931001FC01ED5EFE4F308361
:100E600001C022E020930E01FF91EF919F918F919D
:100E70005F914F913F912F910F900FBE0F901F9058
:100E800018951F920F920FB60F9211248F939F9374
:100E9000EF93FF939091120180911101981779F0CF
:100EA0008091110190E00196FC01FF2780931101D0
:100EB000159AED56FE4F80818093CE000AC0809136
:100EC000C9008F7D8093C9008091C90080648093A0
:100ED000C900FF91EF919F918F910F900FBE0F90DE
:100EE0001F9018951F920F920FB60F92112415980C
:100EF0000F900FBE0F901F90189588E080936800A8
:100F000080EF809373000895CF9389E090E00E9472
:100F100024248823C1F0C0E08091CF04C817BCF41A
:100F2000EC2F0C2E000CFF0BE158FB4F9081E92FAA
:100F3000EF77F0E0EF5FFD4F849197FD81600E94B5
:100F40003A01CF5FE9CFC091CF041C161CF0CF91BE
:100F50000C944601C150EC2FF0E0E158FB4F90811A
:100F6000E92FEF77F0E0EF5FFD4F849197FD81600F
:100F70000E943A01EACFCF93DF93CDB7DEB728972F
:100F80000FB6F894DEBF0FBECDBF8CE08887CE01D0
:100F900001960E9494059B81892F82958F70809382
:100FA0007F04209122049F70922B909380048A8169
:100FB000982F92959F70922B909381048F708093BD
:100FC00082043091CF04363079F49F779093810476
:100FD000822B809382048981982F92959F709093A1
:100FE00083048F70809384040E94840728960FB630
:100FF000F894DEBF0FBECDBFDF91CF910895CF93A0
:10100000DF93CDB7DEB728970FB6F894DEBF0FBEDB
:10101000CDBF8CE08887CE0101960E949405209177
:10102000CF048D819E812630B9F42DE020937F047A
:10103000282F22952F70209380048F708093810435
:101040008BE080938204892F82958F708093830434
:101050009F709093840427C0282F22952F7020938F
:101060007F048F70806880938004892F82958F70B1
:10107000809381049F709093820484E090E00E94AA
:101080002424843081F480917004809383048091BF
:10109000710480938404809172048093850480910C
:1010A0007304809386040E94840728960FB6F894F0
:1010B000DEBF0FBECDBFDF91CF910895FF920F939A
:1010C0001F93CF93DF93CDB7DEB76F970FB6F8942A
:1010D000DEBF0FBECDBF84E090E00E942424F82E36
:1010E00041E065E270E0CE0101960E947103882321
:1010F00021F08BE080937F043FC08D89FF2021F099
:10110000813031F48FE503C0813011F48FE1888B99
:10111000CE0101960E942004CE0101960E94E603B2
:101120008823A1F1CE0101960E9441048E010A5E3E
:101130001F4F24E049E00E949D212F89988D898DC1
:101140002D3239F42BE020937F049F70909380041C
:101150000EC09D3211F49BE001C09F7090937F04FC
:101160008F70FF2049F08068809380048B8D8F7092
:10117000809381048CE006C0809380048CE080938F
:1011800081048AE0809382040E9484076F960FB6E0
:10119000F894DEBF0FBECDBFDF91CF911F910F91AD
:1011A000FF9008959091760480917704911116C074
:1011B000982F92959F7090937F048F708068809392
:1011C000800480917804982F92959F709093810469
:1011D0008F70809382041092200416C0292F2295CC
:1011E0002F7020937F049F7020912204922B909364
:1011F0008004982F92959F70909381048F708093B4
:10120000820481E0809320040C948407282F862F89
:10121000223089F49FE0909379049DE090937A04C2
:101220006AE00E9477218F7080937B0490937C0406
:101230002093D4040895233081F496E190937904A7
:101240009DE090937A046AE00E9477218F708093EA
:101250007B0490937C0482E00CC091E1909379042C
:101260002F5F20937A049DE090937B0460937C042D
:1012700083E08093D404089597E19093790491E0FA
:10128000980F90937A0481110BC0862F6AE00E9418
:1012900077218F7080937B0490937C0482E006C05A
:1012A0008DE080937B0460937C0483E08093D4047E
:1012B0000895882319F0CB010C942C011092910011
:1012C0002B980895A9E7B4E0EFE7F4E080E090E020
:1012D0004DE02091CF04022E000C330B82179307B0
:1012E0005CF4843091051CF42C91208301C0408370
:1012F000019611963196EDCF0C9484079091CF040E
:1013000080917A049430C1F49091D4049430A4F084
:1013100090913004963681F092E0909331048F776B
:1013200080937A0480917B048F7780937B04AFE76E
:10133000B4E080E090E032C09091CF04943041F46A
:101340009091D404943024F090913004953621F794
:101350002091300490917C04243461F02091300479
:10136000243641F020913004233651F42091D404E6
:10137000223014F410923104806880937A040AC0F9
:1013800010923104806880937A0480917B04806895
:1013900080937B04906890937C04C9CF20913104A2
:1013A000FC01E758FB4FE20FF11D27FDFA95208164
:1013B0002D9301968630910589F78DE08093850401
:1013C00080938604109222040C948407CF9380911A
:1013D00079008D3028F082958F70C1E1C81B01C063
:1013E000C0E1809108018F3FE1F41092080182E092
:1013F00090E00E942424882319F08093090102C000
:10140000C09309018AE090E00E942424882361F1BE
:1014100088E090E00E942424682F809109010E94B6
:10142000B20180910801E82F082E000CFF0BEE5C42
:10143000FB4FC0838F5F809308018C330CF1E2E394
:10144000F4E02EE634E080E090E04191840F911DBD
:101450002E173F07D1F7109208016CE370E00E944D
:101460008321609309010CC080910801E82F082EA8
:10147000000CFF0BEE5CFB4FC0838F5F8093080175
:10148000CF9108950F931F93CF93DF9380917404AE
:10149000882369F0809175048150809375048111CF
:1014A00006C01092740468EE73E00E94590986E148
:1014B00090E00E942424082F87E190E00E942424D9
:1014C000182F88E190E00E942424C0917604D0E097
:1014D000202F000F330BC217D307F1F4409177048C
:1014E00050E0212F110F330B42175307A9F420911D
:1014F000780430E0082E000C990B2817390761F4A6
:1015000081E08093740485E090E00E94242480931D
:10151000750488ED90E431C089E190E00E942424B4
:10152000082F8AE190E00E942424182F8BE190E09C
:101530000E942424202F000F330BC217D30719F564
:101540004091770450E0212F110F330B42175307BE
:10155000D1F42091780430E0082E000C990B281764
:10156000390789F481E08093740485E090E00E945B
:1015700024248093750480E692E2DF91CF911F913D
:101580000F910C942C01DF91CF911F910F91089531
:10159000CF93DF9300D000D0CDB7DEB780916F043A
:1015A0004AE0BE016F5F7F4F90E00E94BD219A81AB
:1015B0008981911107C09DE0909383048F7080937F
:1015C000840406C08F70809383049F70909384047A
:1015D00080916E044AE0BE016F5F7F4F90E00E94F1
:1015E000BD2189818F70809385048A81882311F0C1
:1015F0008F7001C08DE080938604809187048D30C8
:1016000031F41092870410928804109289040F908C
:101610000F900F900F90DF91CF91089510921F04BB
:1016200010921C04811180930401109221041092E5
:10163000200484E18093030180910401843018F038
:1016400081E0809304018FEF9FE1909326048093C3
:1016500025040C94C80A1F920F920FB60F92112402
:10166000FF920F931F932F933F934F935F936F932B
:101670007F938F939F93AF93BF93CF93DF93EF931A
:10168000FF93A8950091290410912A040F5F1F4F22
:1016900010932A040093290480912D0490912E0424
:1016A000009729F0019790932E0480932D04809148
:1016B0002B0490912C04009729F0019790932C040F
:1016C00080932B048AE090E00E942424F82E82E08C
:1016D00090E00E942424C82F811102C0C09109010A
:1016E0000330110588F1F11020C010922A041092E5
:1016F000290480912704909128040196909328044E
:10170000809327042C2F30E02817390710F0129807
:1017100001C0129A80912704909128044097A1F467
:1017200010922804109227040FC0003F1F4F60F052
:1017300088E090E00E942424682F8C2F0E94B20140
:1017400010922A0410922904809125049091260475
:1017500001969093260480932504803D974008F4D9
:10176000E4C09EB184E089278EB9109226041092BD
:10177000250480911B04882349F0815080931B0429
:10178000811104C060E070E00E9459090C2F10E044
:1017900083E090E00E94242490E098012F5F3F4F67
:1017A0002817390714F4759A06C0015011098017DB
:1017B00091070CF4759880913004811168C02091D4
:1017C0000301D1E0D20FD093030180E090E00E94AA
:1017D0002424182F81E090E00E9424248F708A3006
:1017E0000CF089E02D2F30E0082E000C990B880FAB
:1017F000991F82179307B4F580910401813031F469
:1018000010FF2AC08093210482E009C0823061F475
:1018100011FF22C0109221040E94FF0783E08093F1
:101820000401109203011EC08330B1F412FF14C0F2
:1018300010922104CE3020F4F11002C0129A01C09F
:1018400012980E945E08129881E080930401109221
:1018500003011092220406C08F5F8093040180E090
:101860000E940E0B80912104882309F45EC087E05A
:1018700090E00E942424882321F080912204805843
:1018800001C080E8809322040E94BB074EC0809173
:101890001F04882309F43EC080912204805880935D
:1018A0002204E091D4048823F1F0809131040E2EBB
:1018B000000CFF0BE81BF10987FDF395E158FB4F86
:1018C000808180788083E091D404809131040E2E51
:1018D000000CFF0BE81BF10987FDF395E158FB4F66
:1018E00080818D6013C080913104A091D4040E2EAC
:1018F000000CFF0BE81BF10987FDF395E158FB4F46
:101900000A2E000CBB0BA758BB4F8C9180830E9402
:1019100084070BC080912004882339F08091220431
:101920008058809322040E94D20882E090E00E94B6
:101930002424811114C080912304909124040196E1
:10194000803E2EE2920728F490932404809323048F
:1019500006C010922404109223040E94E609FF910D
:10196000EF91DF91CF91BF91AF919F918F917F9137
:101970006F915F914F913F912F911F910F91FF9028
:101980000F900FBE0F901F9018951F920F920FB6D9
:101990000F9211241F932F933F934F935F936F9355
:1019A0007F938F939F93AF93BF93CF93DF93EF93E7
:1019B000FF9310917604D091770480917804209160
:1019C000300490913004213411F09234E1F4CFEFDF
:1019D000C80FCA3590F08FEF8D0F8A3540F08FEF2A
:1019E000810F982F9F709A3098F1175032C0982F1E
:1019F0009F709A3088F1D75030C09C2F9F709A30DA
:101A000078F1C9EF23C0C1E0C80F9C2F9F709A30B6
:101A100038F1CA35D0F081E08D0F982F9F709A3041
:101A200020F08A3920F4D95F03C0D82F01C0D0E05C
:101A30008FE090E00E942424813089F4D53411F0A5
:101A4000D03969F41092B1000AC0C7E0C80F08C0CD
:101A5000182FC9E5D9E504C0D82FC9E501C0C0E0F9
:101A600010937604D0937704C09378040E94D20830
:101A700080913004813429F080913004823409F05F
:101A800044C0111142C0D11140C0C1113EC01092DA
:101A9000B100D3E0CDE080EA9FE00E942C01A89540
:101AA0002FEF89E698E1215080409040E1F700C097
:101AB000000060EA7FE080E00E945909C0937F0443
:101AC000C0938004C0938104C09382040E94840761
:101AD000A8952FEF89E698E1215080409040E1F7EA
:101AE00000C000000E94D208D150A9F6A8952FEF9F
:101AF0008DE399E4215080409040E1F700C0000060
:101B00001092300481E00E940E0B0E94420AFF9165
:101B1000EF91DF91CF91BF91AF919F918F917F9185
:101B20006F915F914F913F912F911F910F900FBE39
:101B30000F901F9018955F926F927F928F929F9255
:101B4000AF92BF92CF92DF92EF92FF920F931F93CB
:101B5000CF93DF93CDB7DEB728970FB6F894DEBFEB
:101B60000FBECDBF40E0C42E40E0D42E8E010F5FEB
:101B70001F4F5EEFF52E69E0E62E70E1B72EC6012D
:101B80000E94242491E09F1540F0813118F4F8015F
:101B9000808307C0F801B08204C08A30C0F3F80126
:101BA000E0820F5F1F4FFFEFCF1ADF0AF39486E04A
:101BB000F812E5CF81E18093790481E080937A0483
:101BC0008DE080937B0489818A3008F087E08093E0
:101BD0007C0483E08093D4041092310481E08093EC
:101BE0001F040E94620986E68093300410E06E01B3
:101BF00099E0C90ED11C90EFA92EBB24BA94EE2413
:101C0000EA94FE2C0AE033E0532E809130048823BE
:101C100009F4FDC0809105019091060197FD4AC02D
:101C200080910501909106010A970CF043C0E09164
:101C3000D40480910501909106010E2E000CFF0B3B
:101C4000E758FB4F8083812F012E000C990B2EEF5C
:101C5000210F2230B0F4E1E0F0E0EC0FFD1FE80FBF
:101C6000F91F30917B0420917C048AE0389F200D7D
:101C7000112420838091D404833074F45092D404CE
:101C80000BC02091050130910601E1E0F0E0EC0F7E
:101C9000FD1FE80FF91F2083F0920601E092050175
:101CA0008091D4048330ECF48091D4048F5F8093CE
:101CB000D40417C080910501909106014697A1F4C4
:101CC000173094F41F5FF0920601E0920501E1E005
:101CD000F0E0EC0FFD1FE10FF11D6081812F0E94EC
:101CE00006090E94620991CF809105019091060139
:101CF000459721F4112311F01150E5CF8091050192
:101D000090910601409721F5F0920601E0920501BD
:101D1000123031F48B81803170F48F5F8B8307C078
:101D2000133049F48C81803130F48F5F8C83602FC5
:101D30000E9477212AC0E1E0F0E0EC0FFD1FE10FE7
:101D4000F11D17FDFA958081893058F68F5F2FC0FD
:101D50008091050190910601419799F5F092060155
:101D6000E0920501123031F48B81882399F0815083
:101D70008B8307C0133071F48C81882359F0815014
:101D80008C83602F0E9477218F7080937B049093C7
:101D90007C04A7CFE1E0F0E0EC0FFD1FE10FF11DA7
:101DA00017FDFA958081823008F49BCF81508083A3
:101DB000E091D4040E2E000CFF0BE758FB4F8083FC
:101DC00090CF8091050190910601479709F01DCFB2
:101DD00080E0682E80E0782EFE0131964F01C81415
:101DE000D90451F0F40161914F01C3010E942C24E8
:101DF000FFEF6F1A7F0AF3CF10923004B0922A04DB
:101E0000A092290481E00E940E0B18E0FECE1092F1
:101E1000D404109231041092220428960FB6F8943C
:101E2000DEBF0FBECDBFDF91CF911F910F91FF900D
:101E3000EF90DF90CF90BF90AF909F908F907F906A
:101E40006F905F9008956F927F928F929F92BF9252
:101E5000CF92DF92EF92FF920F931F93CF93DF9376
:101E6000CDB7DEB728970FB6F894DEBF0FBECDBF53
:101E700038E0C32E30E0D32E8E010F5F1F4FF12CC0
:101E80004BE0E42EC6010E942424F11008C08C30DF
:101E900018F4F801808307C0F801E08204C08A309A
:101EA000C0F3F8011082F3940F5F1F4FFFEFCF1ABA
:101EB000DF0A88E0F812E6CF87E18093790421E019
:101EC00020937A0489816AE00E9477218F70809341
:101ED0007B0490937C0482E08093D40410923104BC
:101EE00020931F040E94620985E68093300410E06D
:101EF0006E0199E0C90ED11C94E0B92EEE24EA944B
:101F0000FE2C0AE080913004882309F4D3C080912C
:101F100005019091060197FD24C0809105019091E3
:101F200006010A97F4F4E091D404809105019091A0
:101F300006010E2E000CFF0BE758FB4F80838091AB
:101F4000050190910601E1E0F0E0EC0FFD1FE10FCB
:101F5000F11D17FDFA958083F0920601E0920501CC
:101F600017C080910501909106014697A1F41730A2
:101F700094F41F5FF0920601E0920501E1E0F0E0C9
:101F8000EC0FFD1FE10FF11D6081812F0E943C09C4
:101F90000E946209B7CF8091050190910601459793
:101FA00021F4112311F01150E5CF8091050190919A
:101FB00006014097E1F4F0920601E092050111114B
:101FC00009C08981803130F48F5F8983602F0E943E
:101FD000772122C0E1E0F0E0EC0FFD1FE10FF11DE1
:101FE00017FDFA958081893098F68F5F27C0809120
:101FF000050190910601419759F5F0920601E09292
:10200000050111110EC08981882359F081508983FF
:10201000602F0E9477218F7080937B0490937C04C3
:10202000B7CFE1E0F0E0EC0FFD1FE10FF11D17FD70
:10203000FA958081823008F4ABCF81508083E091A3
:10204000D4040E2E000CFF0BE758FB4F8083A0CF6B
:102050008091050190910601479709F053CF88E0E0
:10206000682E80E0782EFE0131964F01C814D90405
:1020700051F0F40161914F01C3010E942C24FFEF44
:102080006F1A7F0AF3CF88E090E00E9424248093A7
:10209000CF048091CF04823024F08091CF04853129
:1020A00014F0B092CF041092300481E00E940E0B25
:1020B00018E028CF1092D404109231041092220418
:1020C00028960FB6F894DEBF0FBECDBFDF91CF913B
:1020D0001F910F91FF90EF90DF90CF90BF909F9056
:1020E0008F907F906F900895FF920F931F93CF93DF
:1020F000DF93CDB7DEB760970FB6F894DEBF0FBEA3
:10210000CDBFCE0109960E9494058B85982F92959C
:102110009F70909379048F7080937A048A85982FAA
:1021200092959F7090937B048F7080937C04898537
:10213000982F92959F7090937D048F7080937E046A
:102140000E947E0983E7809330041092D40481E0DA
:1021500080931F048CE0F82E0FEF1FEF8091300466
:10216000882309F497C0809105019091060197FD9D
:1021700038C080910501909106010A9794F5E0918D
:10218000D40480910501909106010E2E000CFF0BE6
:10219000E758FB4F80838091D404813041F08091D7
:1021A000D404823021F08091D404833051F4E09142
:1021B000D4040E2E000CFF0BE758FB4F8081806883
:1021C000808310930601009305018091D40485302B
:1021D00028F48091D4048F5F8093D4040E947E09F8
:1021E000BDCF8091050190910601459749F48091FA
:1021F000D404882309F4B2CF8091D40481500EC056
:102200008091050190910601469789F48091D4044C
:10221000853008F0A3CF8091D4048F5F8093D404DD
:102220000E947E09109306010093050197CF8091CB
:10223000050190910601479709F090CFF8868091AB
:10224000790420E1829FC001112490917A049F704B
:10225000892B8B8380917B0420E1829FC001112414
:1022600090917C049F70892B8A8380917D0420E16A
:10227000829FC001112490917E049F70892B8983D5
:10228000CE0101960E94B7051092300481E00E94B1
:102290000E0B64CF1092D4041092310410922204D9
:1022A00010921F0460960FB6F894DEBF0FBECDBF2C
:1022B000DF91CF911F910F91FF9008950F931F937E
:1022C000CF93DF9300D0CDB7DEB78A838A81823087
:1022D00069F02CF4813081F480E190E00CC083300F
:1022E00041F0843049F489E190E005C083E190E059
:1022F00002C086E190E089838981082E000C990B49
:102300000E94242482958F70809379048981082EFD
:10231000000C990B0E9424248F7080937A04898189
:10232000082E000C990B01960E94242482958F7030
:1023300080937B048981082E000C990B01960E94E2
:1023400024248F7080937C048981082E000C990BC3
:1023500002960E94242482958F7080937D04898147
:10236000082E000C990B02960E9424248F708093F3
:102370007E0483E6809330041092D40481E080933D
:102380001F04109231040E947E090FEF1FEF80910D
:102390003004882309F4A3C08091050190910601BF
:1023A00097FD38C080910501909106010A9794F538
:1023B000E091D40480910501909106010E2E000C4D
:1023C000FF0BE758FB4F80838091D404813041F0AC
:1023D0008091D404823021F08091D404833051F470
:1023E000E091D4040E2E000CFF0BE758FB4F8081C8
:1023F0008068808310930601009305018091D404C6
:10240000853028F48091D4048F5F8093D4040E9497
:102410007E09BDCF8091050190910601459749F451
:102420008091D404882309F4B2CF8091D4048150E0
:102430000EC08091050190910601469789F4809124
:10244000D404853008F0A3CF8091D4048F5F8093AB
:10245000D4040E947E09109306010093050197CFD2
:102460008091050190910601479709F090CF8981ED
:102470002091790490E1299F9001112460917A04C0
:102480006F70622B082E000C990B0E942C248981FE
:1024900020917B0490E1299F9001112460917C049C
:1024A0006F70622B082E000C990B01960E942C2451
:1024B000898120917D0490E1299F900111246091F0
:1024C0007E046F70622B082E000C990B02960E94FE
:1024D0002C241092300481E00E940E0B58CF81E032
:1024E0000E940E0B0F900F90DF91CF911F910F91D3
:1024F0000895FF920F931F93CF93DF93CDB7DEB76D
:1025000060970FB6F894DEBF0FBECDBFCE0109961F
:102510000E9494058D85982F92959F7090937904D1
:102520008F7080937A048E85982F92959F709093E8
:102530007B048F7080937C048F85982F92959F7079
:1025400090937D048F7080937E040E947E0984E6C0
:10255000809330041092D40481E080931F048CE0B7
:10256000F82E0FEF1FEF80913004882309F497C0F5
:10257000809105019091060197FD38C08091050179
:10258000909106010A9794F5E091D4048091050199
:10259000909106010E2E000CFF0BE758FB4F808335
:1025A0008091D404813041F08091D404823021F0B4
:1025B0008091D404833051F4E091D4040E2E000CA9
:1025C000FF0BE758FB4F80818068808310930601E2
:1025D000009305018091D404853028F48091D404BF
:1025E0008F5F8093D4040E947E09BDCF8091050146
:1025F00090910601459749F48091D404882309F409
:10260000B2CF8091D40481500EC080910501909189
:102610000601469789F48091D404853008F0A3CF51
:102620008091D4048F5F8093D4040E947E0910931C
:1026300006010093050197CF809105019091060155
:10264000479709F090CFF8868091790420E1829F26
:10265000C001112490917A049F70892B8D83809101
:102660007B0420E1829FC001112490917C049F7023
:10267000892B8E8380917D0420E1829FC0011124EB
:1026800090917E049F70892B8F83CE0101960E94CA
:10269000D4051092300481E00E940E0B64CF81E0DB
:1026A0000E940E0B60960FB6F894DEBF0FBECDBF32
:1026B000DF91CF911F910F91FF900895CF93DF93FA
:1026C00000D000D000D0CDB7DEB7809109014AE03C
:1026D000BE016B5F7F4F90E00E94BD2182E180933D
:1026E0007F042DE0209380049E818D81992339F011
:1026F0008F70809381049F709093820405C0209313
:1027000081048F70809382048091CF04863031F4ED
:102710008DE0809383048093840422C08091CF0451
:102720008830F4F08CE190E00E9424244AE0BE015D
:102730006F5F7F4F90E00E94BD2184E1809383040E
:102740009DE09093840489818F70809385048A81B1
:10275000882321F08F708093860402C090938604B2
:102760000E9484072FEF8DE399E421508040904030
:10277000E1F700C000001092300481E00E940E0BCF
:1027800026960FB6F894DEBF0FBECDBFDF91CF9176
:102790000895CF93DF93209118053091190580910A
:1027A0000001909101012817390709F0BDC5109269
:1027B0008C04C091D604C13209F4FFC308F0ADC047
:1027C000C03109F40DC108F06AC0C53009F45DC11B
:1027D00090F5C13009F4D0C0C43009F0A5C5C0934C
:1027E0008B0410928D048DB79EB7855491090FB656
:1027F000F8949EBF0FBE8DBFADB7BEB7119685E4EE
:10280000EAE8F4E001900D928A95E1F70E948106D2
:102810001092300410921E048DB79EB78B5B9F4FB1
:102820000FB6F8949EBF0FBE8DBF81E090E0DF91A0
:10283000CF910C940E0BC73009F491C108F45AC122
:10284000C93009F071C51092300410921E0481E065
:1028500090E00E940E0B86E080938B0410928D0412
:102860008DB79EB7855491090FB6F8949EBF0FBEE1
:102870008DBFADB7BEB7119685E4EAE8F4E00190EC
:102880000D928A95E1F70E9481068DB79EB78B5B0A
:102890009F4F0FB6F8949EBF0FBE8DBF45C5C73181
:1028A00009F438C588F5C13109F4C4C0C23109F052
:1028B0003BC5F8946091D8048CE190E00E942C24F0
:1028C0007894C0938B0410928D048DB79EB7855475
:1028D00091090FB6F8949EBF0FBE8DBFADB7BEB7BE
:1028E000119685E4EAE8F4E001900D928A95E1F70B
:1028F0000E9481068DB79EB78B5B9F4F0FB6F894F1
:102900009EBF0FBE8DBF10C5C93109F4BBC108F40D
:1029100088C1C03209F423C207C5C13609F475C2A3
:10292000B8F4C53209F455C438F4C23209F450C1C0
:10293000C43209F415C4F8C4C73209F4B6C408F4A3
:102940007EC4C83209F0F0C4F894C0E0D0E0D5C12C
:10295000C43609F4FDC238F4C23609F48DC2C33658
:1029600009F4BFC2E1C4C63609F490C308F459C3E0
:10297000C73609F4C0C3D8C4C0938B04E0EFF1E0BC
:1029800080E090E02591DC01A657BB4F13962C9375
:10299000019681319105B1F780E180938C0410920A
:1029A0009E048DB79EB7855491090FB6F8949EBFCB
:1029B0000FBE8DBFADB7BEB7119685E4EAE8F4E06F
:1029C00001900D928A95E1F70E9481068DB79EB71E
:1029D0008B5B9F4F0FB6F8949EBF0FBE8DBFA4C4F4
:1029E000C0938B048091090180938D0410928E0412
:1029F00081E080938C048DB79EB7855491090FB602
:102A0000F8949EBF0FBE8DBFADB7BEB7119685E4DB
:102A1000EAE8F4E001900D928A95E1F70E948106C0
:102A20008DB79EB78B5B9F4F0FB6F8949EBF0FBEBE
:102A30008DBF7AC4F8946091D80482E090E00E943F
:102A40002C247894C0938B0410928D048DB79EB77C
:102A5000855491090FB6F8949EBF0FBE8DBFADB7D8
:102A6000BEB7119685E4EAE8F4E001900D928A95EC
:102A7000E1F70E9481068DB79EB78B5B9F4F0FB623
:102A8000F8949EBF0FBE8DBF4FC480913004813437
:102A900069F080913004813649F081E480933004FC
:102AA0008FEF9FEF909306018093050185E080935F
:102AB0008B0410928D048DB79EB7855491090FB683
:102AC000F8949EBF0FBE8DBFADB7BEB7119685E41B
:102AD000EAE8F4E001900D928A95E1F70E94810600
:102AE0008DB79EB78B5B9F4F0FB6F8949EBF0FBEFE
:102AF0008DBF1AC480913004823469F08091300413
:102B0000823649F082E4809330048FEF9FEF9093F8
:102B100006018093050186E080938B0410928D045A
:102B20008DB79EB7855491090FB6F8949EBF0FBE1E
:102B30008DBFADB7BEB7119685E4EAE8F4E0019029
:102B40000D928A95E1F70E9481068DB79EB78B5B47
:102B50009F4F0FB6F8949EBF0FBE8DBFE5C385E5AE
:102B6000809330048FEF9FEF9093060180930501CF
:102B70001092B1001092B200109276041092770475
:102B80001092780480E880932004C0938B04109204
:102B90008D048DB79EB7855491090FB6F8949EBFEA
:102BA0000FBE8DBFADB7BEB7119685E4EAE8F4E07D
:102BB00001900D928A95E1F70E9481068DB79EB72C
:102BC0008B5B9F4F0FB6F8949EBF0FBE8DBFACC3FB
:102BD00087E190E09093060180930501C0938B04F8
:102BE00010928D048DB79EB7855491090FB6F89455
:102BF0009EBF0FBE8DBFADB7BEB7119685E4EAE8A4
:102C0000F4E001900D928A95E1F70E9481068DB75C
:102C10009EB78B5B9F4F0FB6F8949EBF0FBE8DBFC4
:102C200083C3F8948EE090E00E942424882311F05E
:102C300081E001C085E08093B100789488E18093C1
:102C40008B0410928D048DB79EB7855491090FB6F1
:102C5000F8949EBF0FBE8DBFADB7BEB7119685E489
:102C6000EAE8F4E001900D928A95E1F70E9481066E
:102C70008DB79EB78B5B9F4F0FB6F8949EBF0FBE6C
:102C80008DBF24C01092B100C0938B0410928D04AC
:102C90008DB79EB7855491090FB6F8949EBF0FBEAD
:102CA0008DBFADB7BEB7119685E4EAE8F4E00190B8
:102CB0000D928A95E1F70E9481068DB79EB78B5BD6
:102CC0009F4F0FB6F8949EBF0FBE8DBF68E971E2AB
:102CD00081E090E00E9459099FEF22E587E0915042
:102CE00020408040E1F700C0000060E070E080E03C
:102CF00090E0DF91CF910C945909FE01EB52FB4F0C
:102D00006381CE01885F9F4F0E942C242196C8309A
:102D1000D10599F7789488E280938B0410928D0402
:102D20008DB79EB7855491090FB6F8949EBF0FBE1C
:102D30008DBFADB7BEB7119685E4EAE8F4E0019027
:102D40000D928A95E1F70E9481068DB79EB78B5B45
:102D50009F4F0FB6F8949EBF0FBE8DBFE5C281E0B6
:102D600090911D04911101C080E09091B1009111EA
:102D7000826090913004953511F480680BC0909179
:102D80003004913411F4806405C090913004923481
:102D900009F480629091760490938D049091770469
:102DA00090938E049091780490938F0490916F0487
:102DB0009093900490916E04909391048093920468
:102DC00086E080938C0480E280938B048DB79EB75D
:102DD000855491090FB6F8949EBF0FBE8DBFADB755
:102DE000BEB7119685E4EAE8F4E001900D928A9569
:102DF000E1F70E9481068DB79EB78B5B9F4F0FB6A0
:102E0000F8949EBF0FBE8DBF8FC280911D04882392
:102E100009F48AC280916F048F5F843618F480931E
:102E20006F0402C010926F040E94C80A0E94D20868
:102E300081E680938B0410928D048DB79EB78554E4
:102E400091090FB6F8949EBF0FBE8DBFADB7BEB748
:102E5000119685E4EAE8F4E001900D928A95E1F795
:102E60000E9481068DB79EB78B5B9F4F0FB6F8947B
:102E70009EBF0FBE8DBF58C280911D04882309F4E8
:102E800053C280916F048150843608F083E68093AA
:102E90006F040E94C80A0E94D20882E680938B04C5
:102EA00010928D048DB79EB7855491090FB6F89492
:102EB0009EBF0FBE8DBFADB7BEB7119685E4EAE8E1
:102EC000F4E001900D928A95E1F70E9481068DB79A
:102ED0009EB78B5B9F4F0FB6F8949EBF0FBE8DBF02
:102EE00023C280911D04882309F41EC280916E04C0
:102EF0008F5F843618F480936E0402C010926E04C3
:102F00000E94C80A0E94D20883E680938B04109224
:102F10008D048DB79EB7855491090FB6F8949EBF66
:102F20000FBE8DBFADB7BEB7119685E4EAE8F4E0F9
:102F300001900D928A95E1F70E9481068DB79EB7A8
:102F40008B5B9F4F0FB6F8949EBF0FBE8DBFECC139
:102F500080911D04882309F4E7C180916E0481509B
:102F6000843608F083E680936E040E94C80A0E94AB
:102F7000D20884E680938B0410928D048DB79EB79F
:102F8000855491090FB6F8949EBF0FBE8DBFADB7A3
:102F9000BEB7119685E4EAE8F4E001900D928A95B7
:102FA000E1F70E9481068DB79EB78B5B9F4F0FB6EE
:102FB000F8949EBF0FBE8DBFB7C180911D048823BA
:102FC00009F4B2C18091D80480936F048091D90430
:102FD00080936E040E94C80A0E94D208C0938B049A
:102FE00010928D048DB79EB7855491090FB6F89451
:102FF0009EBF0FBE8DBFADB7BEB7119685E4EAE8A0
:10300000F4E001900D928A95E1F70E9481068DB758
:103010009EB78B5B9F4F0FB6F8949EBF0FBE8DBFC0
:1030200083C180911D04882309F47EC180918704A7
:103030008F5F8A3018F48093870402C0109287044F
:103040000E94840785E680938B0410928D048DB7CF
:103050009EB7855491090FB6F8949EBF0FBE8DBFE1
:10306000ADB7BEB7119685E4EAE8F4E001900D92A1
:103070008A95E1F70E9481068DB79EB78B5B9F4FC3
:103080000FB6F8949EBF0FBE8DBF4EC180911D0438
:10309000882309F449C1809188048F5F8A3018F42D
:1030A0008093880402C0109288040E94840786E6F8
:1030B00080938B0410928D048DB79EB7855491092F
:1030C0000FB6F8949EBF0FBE8DBFADB7BEB71196B9
:1030D00085E4EAE8F4E001900D928A95E1F70E9418
:1030E00081068DB79EB78B5B9F4F0FB6F8949EBF3E
:1030F0000FBE8DBF19C180911D04882309F414C12E
:10310000809189048F5F8A3018F48093890402C00B
:10311000109289040E94840787E680938B041092A2
:103120008D048DB79EB7855491090FB6F8949EBF54
:103130000FBE8DBFADB7BEB7119685E4EAE8F4E0E7
:1031400001900D928A95E1F70E9481068DB79EB796
:103150008B5B9F4F0FB6F8949EBF0FBE8DBFE4C030
:1031600080911D04882309F4DFC08091D8048093E6
:1031700076048091D904809377048091DA04809357
:1031800078041092B2000E94D20884E280938B04EB
:1031900010928D048DB79EB7855491090FB6F8949F
:1031A0009EBF0FBE8DBFADB7BEB7119685E4EAE8EE
:1031B000F4E001900D928A95E1F70E9481068DB7A7
:1031C0009EB78B5B9F4F0FB6F8949EBF0FBE8DBF0F
:1031D000ABC0F894C0E0D0E0CE01805090400E9497
:1031E0002424FE01E657FB4F83832196C830D10586
:1031F00099F7789488E080938C0485E280938B041F
:103200008DB79EB7855491090FB6F8949EBF0FBE37
:103210008DBFADB7BEB7119685E4EAE8F4E0019042
:103220000D928A95E1F70E9481068DB79EB78B5B60
:103230009F4F0FB6F8949EBF0FBE8DBF75C0F89418
:10324000C0E0D0E0CE01885F9F4F0E942424FE01A1
:10325000E657FB4F83832196C830D10599F77894C0
:1032600088E080938C0486E280938B048DB79EB7B0
:10327000855491090FB6F8949EBF0FBE8DBFADB7B0
:10328000BEB7119685E4EAE8F4E001900D928A95C4
:10329000E1F70E9481068DB79EB78B5B9F4F0FB6FB
:1032A000F8949EBF0FBE8DBF3FC0F894C0E0D0E041
:1032B000FE01EB52FB4F6381CE01805090400E9493
:1032C0002C242196C830D10599F7789487E2809311
:1032D0008B0410928D048DB79EB7855491090FB65B
:1032E000F8949EBF0FBE8DBFADB7BEB7119685E4F3
:1032F000EAE8F4E001900D928A95E1F70E948106D8
:103300008DB79EB78B5B9F4F0FB6F8949EBF0FBED5
:103310008DBF0AC068E971E281E090E00E9459091E
:103320008091D80480931B04DF91CF9108951F935F
:10333000CF93DF930E944806EC01D1115CC08091CD
:103340001A04813069F1B8F08230B9F1833009F0A4
:1033500075C08091180590911905DC2FCC27C80FF6
:10336000D91FD0931905C09318058FEF80931A04C5
:103370000E94C91363C0F894CC2331F08CE190E033
:103380000E942424C8130AC081E080931A04C093C9
:10339000D5048C2F0E9417021092180478944EC006
:1033A0008C2F0E941702C093D6048091D6040E94ED
:1033B00034028093190482E01BC010911904112378
:1033C00089F0E091180481E08E0F80931804F0E0FA
:1033D000EB52FB4FC3838C2F0E94170211501093A6
:1033E00019042CC0DD27D0931905C093180583E07C
:1033F00080931A0423C080EF80938B0410928D0475
:103400008DB79EB7855491090FB6F8949EBF0FBE35
:103410008DBFADB7BEB7119685E4EAE8F4E0019040
:103420000D928A95E1F70E9481068DB79EB78B5B5E
:103430009F4F0FB6F8949EBF0FBE8DBFDF91CF9107
:103440001F910C9405021F920F920FB60F92112438
:103450002F933F934F935F936F937F938F939F939C
:10346000AF93BF93CF93EF93FF93C091C000409170
:10347000C6008091950290E001968F779927209160
:10348000940230E08217930751F0C871809395023F
:10349000FC01E856FD4F40830E94971901C0C2E02D
:1034A000C0939302FF91EF91CF91BF91AF919F9104
:1034B0008F917F916F915F914F913F912F910F90DD
:1034C0000FBE0F901F9018951F93CF93DF9310910D
:1034D000B1001092B100C1E0C0931C048091760449
:1034E000982F92959F70909379048F7080937A04AF
:1034F00080917704982F92959F7090937B048F70A2
:1035000080937C0480917804982F92959F7090937B
:103510007D048F7080937E040E947E091092D404F3
:10352000C0931F04CFEFDFEF80910501909106015A
:10353000479709F497C080910501909106018F97F4
:1035400009F490C0809105019091060197FD38C063
:1035500080910501909106010A9794F5E091D404B9
:1035600080910501909106010E2E000CFF0BE7588B
:10357000FB4F80838091D404813041F08091D4044A
:10358000823021F08091D404833051F4E091D4044E
:103590000E2E000CFF0BE758FB4F80818068808364
:1035A000D0930601C09305018091D404853028F49E
:1035B0008091D4048F5F8093D4040E947E09B4CF9D
:1035C0008091050190910601459749F48091D404BA
:1035D000882309F4A9CF8091D40481500EC0809132
:1035E000050190910601469789F48091D4048530B5
:1035F00008F09ACF8091D4048F5F8093D4040E9406
:103600007E09D0930601C09305018ECF80910501FC
:1036100090910601479709F087CF8091790420E1C6
:10362000829FC001112490917A049F70892B80930E
:10363000760480917B0420E1829FC0011124909147
:103640007C049F70892B8093770480917D0420E116
:10365000829FC001112490917E049F70892B8093DA
:10366000780462CF1092D404109231041092220494
:1036700010921F041093B1000E94C80A0E94D20841
:103680008091050190910601479791F488E991E2B4
:103690000E942C018FEF92E527E08150904020405E
:1036A000E1F700C0000060E070E080E00E9459098E
:1036B0008FEF9FEF909306018093050110921C04F9
:1036C000DF91CF911F910895CF93DF9300D0CDB7B5
:1036D000DEB7CE0101960E94F701882309F487C165
:1036E0000E94DB019EB184E089278EB929813A814D
:1036F000C90146E0969587954A95E1F7982F9F7105
:10370000822F8F7322273870632F66956695669592
:1037100040910701262F30E0042E000C550B421774
:10372000530711F0992361F040910701042E000C1A
:10373000550B2417350709F4EEC0933009F0EBC0A0
:1037400060930701282F30E0309306012093050194
:103750008C3209F4A7C080F4823209F489C038F4AD
:103760008A3009F4CCC08F3009F452C037C1893295
:1037700019F18B32A9F132C1883309F461C030F4F8
:103780008E3269F08F3209F4AEC028C18C33A1F1BA
:103790008E3309F449C0893309F020C15DC010920D
:1037A0006F0410926E041092870410928804109295
:1037B00089040E94C80A0DC080913004813409F444
:1037C00016C180913004813609F411C181E48093DF
:1037D00030048FEF9FEF909306018093050107C19E
:1037E00080913004823409F402C180913004823621
:1037F00009F4FDC082E4EBCF80913004853509F4F3
:10380000F6C080913004853709F4F1C085E5DFCF3B
:1038100080913004833509F4EAC080913004833705
:1038200009F4E5C083E5D3CF80913004843409F4F2
:10383000DEC080913004843609F4D9C084E4C7CF57
:1038400080913004863409F4D2C0809130048636E9
:1038500009F4CDC086E4BBCF80913004853409F4EF
:10386000C6C080913004853609F4C1C085E4AFCF6D
:1038700080913004833449F080913004833629F0FC
:1038800083E48093300481E02BC080913004833442
:1038900029F080913004833609F0A9C010923004D9
:1038A00082E01EC080913004833469F0809130043E
:1038B000833649F080911E04833029F083E480939D
:1038C000300483E00DC080913004833609F08FC04E
:1038D00080911E04833009F08AC01092300484E085
:1038E00080931E0476CF80911C04811180C01092B9
:1038F000300410921E0481E00E940E0B78C080916B
:1039000030048F3409F473C0809130048F3409F48B
:103910006EC08FE45CCF90911D04992309F45EC0C2
:10392000803199F050F4883009F442C0893009F4AC
:103930004AC0873009F052C02EC08032D9F081329F
:1039400009F1813109F04AC00CC080916F048F5F8A
:10395000843668F010926F040E94C80A0E94D20850
:1039600046C080916F048150843608F083E68093CE
:103970006F04F2CF80916E048F5F843648F010920E
:103980006E04EACF80916E048150843608F083E69D
:1039900080936E04E1CF809187048F5F8A3018F4A2
:1039A0008093870402C0109287040E9484071FC07E
:1039B000809188048F5F8A3018F480938804F5CF53
:1039C00010928804F2CF809189048F5F8A3018F4B6
:1039D00080938904EACF10928904E7CF8D3039F4BF
:1039E00088E991E20E942C0182E080931B040F90F1
:1039F0000F90DF91CF9108951F920F920FB60F9203
:103A000011242F933F934F935F936F937F938F93E3
:103A10009F93AF93BF93CF93EF93FF9380918400D5
:103A2000909185001A9902C0C0E001C0C2E09C01DB
:103A3000275335402737334010F4CC5F07C08C5BE9
:103A400091408A37934010F00E94DB01809102017F
:103A50008530E1F48091D30481508093D304209188
:103A6000D0043091D10441E050E0FA0102C0EE0FE1
:103A7000FF1F8A95E2F7CF01822B932B9093D104FD
:103A80008093D00481E08093020145C0E82FF0E0EC
:103A9000E65FFE4F208130E002C035952795CA953C
:103AA000E2F7922F9370891711F0843018F00E947A
:103AB000DB0135C0909302018091D304923021F450
:103AC00081508093D30418C09130B1F48150809319
:103AD000D3044091D0045091D10461E070E0FB0127
:103AE00002C0EE0FFF1F8A95E2F7CF01842B952BC2
:103AF0009093D1048093D0048091D30481110BC0A2
:103B000020FD09C086E08093020181E08093D20409
:103B1000EA980E94641B1092850010928400FF9125
:103B2000EF91CF91BF91AF919F918F917F916F91C5
:103B30005F914F913F912F910F900FBE0F901F906B
:103B40001895CF93C82F8CE090E00E9424248823FE
:103B500009F49FC0C23061F020F4C13009F470C094
:103B6000AEC0C43009F48EC0C83009F440C0A7C04C
:103B700080911D04882349F080912D0490912E049A
:103B8000892B19F487E190E014C080912B04909167
:103B90002C04892BB9F08BE090E00E942424813022
:103BA00069F010F0823061F085E5809330048FEF8A
:103BB0009FEF909306018093050181C081E4F5CFCA
:103BC00082E4F3CF80912D0490912E04892B41F053
:103BD0001092300410921E0481E0CF910C940E0BD1
:103BE00080EA9FE090932C0480932B0468C080911E
:103BF0001D04882309F463C020912D0430912E0404
:103C000080916F04232B79F020EA3FE030932E045B
:103C100020932D048150843608F083E680936F044E
:103C20000E94C80A08C08F5F843618F480936F041E
:103C300002C010926F040E94C80ACF910C94D2085F
:103C400080911D048823D9F120912D0430912E04F8
:103C500080916E04232B69F020EA3FE030932E041C
:103C600020932D048150843608F083E680936E04FF
:103C7000D7CF8F5F843618F480936E04DCCF109218
:103C80006E04D9CF80EA9FE090932E0480932D0498
:103C900016C080911D04882391F0C23051F018F4B1
:103CA000C13039F00CC0C43039F0C83041F484E080
:103CB00004C0C0932F0403C083E080932F04CF91EE
:103CC00008951F920F920FB60F9211242F933F93D6
:103CD0004F935F936F937F938F939F93AF93BF9314
:103CE000EF93FF9389B1809582958F7090E00E9449
:103CF000A11DFF91EF91BF91AF919F918F917F9106
:103D00006F915F914F913F912F910F900FBE0F9048
:103D10001F90189580912F04823089F01CF4813017
:103D200031F026C08330A1F08430D1F021C08091E1
:103D30006F048F5F843648F010926F0419C0809131
:103D40006F048150843608F083E680936F0410C0BE
:103D500080916E048F5F843648F010926E0408C024
:103D600080916E048150843608F083E680936E045F
:103D70000E94C80A0E94D20883E02FEF39EF90E03A
:103D8000215030409040E1F700C00000A89599B163
:103D900092959F709F30D1F7815079F710922F0440
:103DA00008950F931F93CF932FEF3FEF30930601AA
:103DB000209305011092B20090E890932004813086
:103DC00079F480E190E00E9424248093760481E1DC
:103DD00090E00E9424248093770482E190E010C058
:103DE000823091F483E190E00E9424248093760451
:103DF00084E190E00E9424248093770485E190E0A0
:103E00000E942424809378040E94D208C5E00FEF1A
:103E10001FEF80913004882399F1809105019091E2
:103E200006014797F9F48091B100811103C0C09356
:103E3000B10002C01092B100109306010093050179
:103E400088E991E20E942C012FEF82E597E0215052
:103E500080409040E1F700C0000060E070E080E04A
:103E60000E94590980912F0481110E948A1E80911D
:103E70000501909106018D9761F60E94641AC9CFE1
:103E80001092B10088EA98E40E942C012FEF82E59D
:103E900097E0215080409040E1F700C0000060E0D2
:103EA00070E080E0CF911F910F910C9459090F930E
:103EB0001F93CF938FEF9FEF90930601809305019F
:103EC0001092B20010927604109277041092780447
:103ED00080E8809320040E94D208C5E00FEF1FEF16
:103EE00080913004882399F1809105019091060119
:103EF0004797F9F48091B100811103C0C093B100DC
:103F000002C01092B100109306010093050188E9E8
:103F100091E20E942C012FEF82E597E02150804032
:103F20009040E1F700C0000060E070E080E00E9497
:103F3000590980912F0481110E948A1E80910501E8
:103F4000909106018D9761F60E94641AC9CF109274
:103F5000B10088EA98E40E942C012FEF82E597E0F7
:103F6000215080409040E1F700C0000060E070E028
:103F700080E0CF911F910F910C94590999E288E14B
:103F80000FB6F894A895809360000FBE90936000E0
:103F900083E48DB982E08EB981E985B989E684B977
:103FA00080EF8BB91AB886E680937C0080EE809310
:103FB0007A0084E080937B008FEB80937E0088E022
:103FC00090E00E9424248093CF048091CF0482301B
:103FD00024F08091CF0485311CF084E08093CF04DD
:103FE0000E9435010E947D0783E390E00E942D0628
:103FF000F8940E94E60912980E9449010E94EA0181
:104000000E94B8046A9A82E085BD81E080936E00C8
:10401000809370008091B60080628093B60080E447
:104020008093900080E89EE30E942C012FE788E3B4
:1040300091E0215080409040E1F700C0000060E036
:1040400070E080E00E9459091092300481E00E94E3
:104050000E0B0E94C80A78940E948407C1E0109257
:104060001D04809130048823D1F3E09130048E2F19
:10407000EE0F990BAA0BBB0BFC01E154F109E531E2
:10408000F10578F7EA59FF4F0C949721C0931D046E
:104090000E94C80A81E090E006C0C0931D040E94FF
:1040A000C80A82E090E00E94D11EDBCFC0931D04BD
:1040B0000E94C80A0E94571FD4CF0E947410D1CF0B
:1040C0000E947912CECF0E945E13CBCF0E949B0D2F
:1040D000C8CF0E94230FC5CF80911E040E945E119D
:1040E00080911E04823019F0843009F0BACF0E940A
:1040F0005E1110921E04B5CFE89409C097FB3EF400
:1041000090958095709561957F4F8F4F9F4F992324
:10411000A9F0F92F96E9BB279395F69587957795A2
:104120006795B795F111F8CFFAF4BB0F11F460FF62
:104130001BC06F5F7F4F8F4F9F4F16C0882311F0BA
:1041400096E911C0772321F09EE8872F762F05C0CE
:10415000662371F096E8862F70E060E02AF09A9569
:10416000660F771F881FDAF7880F9695879597F95E
:1041700008950E94CC200C943D210E942F2138F0FC
:104180000E94362120F0952311F00C9426210C94E6
:104190002C2111240C9471210E944E2170F3959FC3
:1041A000C1F3950F50E0551F629FF001729FBB272E
:1041B000F00DB11D639FAA27F00DB11DAA1F649FCA
:1041C0006627B00DA11D661F829F2227B00DA11D7D
:1041D000621F739FB00DA11D621F839FA00D611D03
:1041E000221F749F3327A00D611D231F849F600D24
:1041F000211D822F762F6A2F11249F5750409AF04D
:10420000F1F088234AF0EE0FFF1FBB1F661F771FD8
:10421000881F91505040A9F79E3F510580F00C94A3
:1042200026210C9471215F3FE4F3983ED4F38695E8
:1042300077956795B795F795E7959F5FC1F7FE2B43
:10424000880F911D9695879597F9089597F99F671F
:1042500080E870E060E008959FEF80EC089500240E
:104260000A941616170618060906089500240A94DB
:1042700012161306140605060895092E0394000C61
:1042800011F4882352F0BB0F40F4BF2B11F460FFF0
:1042900004C06F5F7F4F8F4F9F4F089557FD905819
:1042A000440F551F59F05F3F71F04795880F97FBFA
:1042B000991F61F09F3F79F08795089512161306B4
:1042C0001406551FF2CF4695F1DF08C016161706E3
:1042D0001806991FF1CF8695710561050894089518
:1042E000E894BB2766277727CB0197F90895991B98
:1042F00079E004C0991F961708F0961B881F7A95DD
:10430000C9F780950895AA1BBB1B51E107C0AA1FDE
:10431000BB1FA617B70710F0A61BB70B881F991F66
:104320005A95A9F780959095BC01CD010895EE0F9F
:10433000FF1F0590F491E02D0994EF920F931F93C6
:10434000CF93DF93E80147FD02C034E001C034E1C0
:10435000042E000C550B57FF03C051954195510990
:10436000E32E022F242FAE010E94E221CE01DF9125
:10437000CF911F910F91EF900895BB274A3031F4F0
:10438000992322F4BDE2909581959F4F0C94C92109
:10439000BB27FB015527AA27880F991FAA1FA4171F
:1043A00010F0A41B83955051B9F7A05DAA3308F013
:1043B000A95DA193009779F7B111B1931192CB0147
:1043C0000C941424A9E0B0E0E8EEF1E20C9440244F
:1043D0006A01122FB02E2BE3201720F0FF24F39454
:1043E000F00E02C02CE3F22E0F2D27E0AE014F5F3E
:1043F0005F4F0E943C23BC014981842F897081302A
:1044000031F0E1FC06C0E0FE06C090E205C09DE28E
:1044100003C09BE201C090E05E2D507143FF3CC0A1
:10442000911102C083E001C084E0811718F4212FAC
:10443000281B01C020E051110BC0F601822F30E291
:10444000882319F031938150FBCFC20ED11C20E09C
:10445000992329F0D6019C93F60131966F01C6018C
:104460000396E2FE0AC03EE4D6013C9341E4119675
:104470004C93119712963C9306C03EE6F6013083AA
:1044800041E641833283FC01322F40E2332309F4B9
:1044900042C041933150FACF42FF44C0911102C053
:1044A00083E001C084E0811718F4212F281B01C08C
:1044B00020E051110BC0F601822F30E2882319F061
:1044C00031938150FBCFC20ED11C20E0992329F0FB
:1044D000D6019C93F60131966F01C6010396E2FE68
:1044E0000BC039E4D6013C933EE411963C931197FE
:1044F00036E412963C9307C039E6F60130833EE677
:10450000318336E63283FC01322F40E2332319F047
:1045100041933150FBCFFC01E20FF11D10828EEF71
:104520009FEFA6C021E030E0911102C020E030E012
:10453000161617061CF4FB01319602C0E1E0F0E00C
:104540002E0F3F1FBB2021F0EB2DF0E0319602C073
:10455000E0E0F0E02E0F3F1FE12FF0E02E173F07C5
:104560001CF4121B212F01C020E08E2D887159F4FC
:10457000F601822F30E2882319F031938150FBCF6E
:10458000C20ED11C20E0992329F0D6019C93F6019C
:1045900031966F0151110BC0F601822F90E38823F1
:1045A00019F091938150FBCFC20ED11C20E00F2D4A
:1045B000060F9A81342F307144FF03C0913309F400
:1045C0000150101624F4093018F008E001C001E091
:1045D000AB0177FF02C040E050E0FB01E41BF50BAC
:1045E000A1E0B0E0AC0FBD1FEA0FFB1F8EE2A82ECA
:1045F0004B01801A91080B2D10E0119501951109BE
:104600004F3FBFEF5B0721F4D601AC9211966D01CD
:10461000641775072CF08416950614F4818101C087
:1046200080E3415051093196D60111967D01401722
:10463000510724F0D6018C936701E2CF6417750708
:1046400039F4963320F4953319F4311101C081E324
:10465000F6018083F701822F90E2882319F091936D
:104660008150FBCFF701E20FF11D108280E090E056
:104670002996ECE00C945C24283008F027E03327DE
:10468000DA01990F311D87FD916000966105710572
:1046900039F432602E5F3D9330E32A95E1F70895B7
:1046A0009F3F30F080387105610509F03C5F3C5F49
:1046B0003D93913008F08068911DDF93CF931F9355
:1046C0000F93FF92EF92192F987F9695E92F969569
:1046D0009695E90FFF27E05BFE4F99273327EE24DD
:1046E000FF24A701E70105900894079428F4360FEA
:1046F000E71EF81E491F511D660F771F881F991F5F
:104700000694A1F70590079428F4E70EF81E491FB8
:10471000561FC11D770F881F991F661F0694A1F7AA
:104720000590079428F4F80E491F561FC71FD11D86
:10473000880F991F661F771F0694A1F705900794AD
:1047400020F4490F561FC71FD81F990F661F771FE8
:10475000881F0694A9F784911095177041F0D6959B
:10476000C79557954795F794E7941A95C1F7E6EFE3
:10477000F0E06894159015913591659195910590AB
:104780007FE27395E118F10A430B560BC90BD00970
:10479000C0F7E10CF11E431F561FC91FD01D7EF448
:1047A000703311F48A95E6CFE894015030F0080F89
:1047B0000AF40027021708F4202F2395022F7A33DA
:1047C00028F079E37D932A95E9F710C07D932A9527
:1047D00089F6069497956795379517951794E1187C
:1047E000F10A430B560BC90BD00998F023957E9123
:1047F00073957A3308F070E37C932013B8F77E91B9
:1048000070617D9330F0839571E37D9370E32A9519
:10481000E1F71124EF90FF900F911F91CF91DF915D
:10482000992787FD90950895DC01FC01672F719110
:104830007723E1F7329704C07C916D937083629186
:10484000AE17BF07C8F30895F999FECF92BD81BD99
:10485000F89A992780B50895262FF999FECF1FBAA7
:1048600092BD81BD20BD0FB6F894FA9AF99A0FBE99
:10487000019608952F923F924F925F926F927F928E
:104880008F929F92AF92BF92CF92DF92EF92FF9260
:104890000F931F93CF93DF93CDB7DEB7CA1BDB0B0C
:1048A0000FB6F894DEBF0FBECDBF09942A883988B1
:1048B00048885F846E847D848C849B84AA84B984B8
:1048C000C884DF80EE80FD800C811B81AA81B981C4
:1048D000CE0FD11D0FB6F894DEBF0FBECDBFED01D8
:0648E0000895F894FFCFDB
:0E48E600FFFF051401FFFFFFFF1001919BFB78
:00000001FF
